{
  "_format": "hh-sol-artifact-1",
  "contractName": "Functionality",
  "sourceName": "contracts/Functionality.sol",
  "abi": [
    {
      "anonymous": false,
      "inputs": [
        {
          "indexed": false,
          "internalType": "address",
          "name": "user_address",
          "type": "address"
        },
        {
          "indexed": false,
          "internalType": "uint256",
          "name": "order_id",
          "type": "uint256"
        }
      ],
      "name": "OrderCancelled",
      "type": "event"
    },
    {
      "anonymous": false,
      "inputs": [
        {
          "indexed": false,
          "internalType": "address",
          "name": "user_address",
          "type": "address"
        },
        {
          "indexed": false,
          "internalType": "uint256",
          "name": "order_id",
          "type": "uint256"
        }
      ],
      "name": "OrderDelivered",
      "type": "event"
    },
    {
      "anonymous": false,
      "inputs": [
        {
          "indexed": false,
          "internalType": "address",
          "name": "user_address",
          "type": "address"
        },
        {
          "indexed": false,
          "internalType": "uint256",
          "name": "order_id",
          "type": "uint256"
        }
      ],
      "name": "OrderPlaced",
      "type": "event"
    },
    {
      "anonymous": false,
      "inputs": [
        {
          "indexed": false,
          "internalType": "uint256",
          "name": "product_id",
          "type": "uint256"
        }
      ],
      "name": "ProductDeleted",
      "type": "event"
    },
    {
      "anonymous": false,
      "inputs": [
        {
          "indexed": false,
          "internalType": "uint256",
          "name": "product_id",
          "type": "uint256"
        }
      ],
      "name": "ProductEdited",
      "type": "event"
    },
    {
      "anonymous": false,
      "inputs": [
        {
          "indexed": false,
          "internalType": "uint256",
          "name": "product_id",
          "type": "uint256"
        }
      ],
      "name": "ProductRegistered",
      "type": "event"
    },
    {
      "anonymous": false,
      "inputs": [
        {
          "indexed": false,
          "internalType": "address",
          "name": "userAddress",
          "type": "address"
        },
        {
          "indexed": false,
          "internalType": "string",
          "name": "username",
          "type": "string"
        }
      ],
      "name": "UserRegistered",
      "type": "event"
    },
    {
      "anonymous": false,
      "inputs": [
        {
          "indexed": false,
          "internalType": "address",
          "name": "user_address",
          "type": "address"
        }
      ],
      "name": "addressAdded",
      "type": "event"
    },
    {
      "anonymous": false,
      "inputs": [
        {
          "indexed": false,
          "internalType": "address",
          "name": "user_address",
          "type": "address"
        }
      ],
      "name": "addressEdited",
      "type": "event"
    },
    {
      "inputs": [],
      "name": "BUY",
      "outputs": [
        {
          "internalType": "string",
          "name": "",
          "type": "string"
        }
      ],
      "stateMutability": "view",
      "type": "function"
    },
    {
      "inputs": [],
      "name": "CANCELLED",
      "outputs": [
        {
          "internalType": "string",
          "name": "",
          "type": "string"
        }
      ],
      "stateMutability": "view",
      "type": "function"
    },
    {
      "inputs": [],
      "name": "DELIVERED",
      "outputs": [
        {
          "internalType": "string",
          "name": "",
          "type": "string"
        }
      ],
      "stateMutability": "view",
      "type": "function"
    },
    {
      "inputs": [],
      "name": "IN_TRANSIT",
      "outputs": [
        {
          "internalType": "string",
          "name": "",
          "type": "string"
        }
      ],
      "stateMutability": "view",
      "type": "function"
    },
    {
      "inputs": [],
      "name": "OUTSTANDING",
      "outputs": [
        {
          "internalType": "string",
          "name": "",
          "type": "string"
        }
      ],
      "stateMutability": "view",
      "type": "function"
    },
    {
      "inputs": [],
      "name": "PAID",
      "outputs": [
        {
          "internalType": "string",
          "name": "",
          "type": "string"
        }
      ],
      "stateMutability": "view",
      "type": "function"
    },
    {
      "inputs": [],
      "name": "REFUND",
      "outputs": [
        {
          "internalType": "string",
          "name": "",
          "type": "string"
        }
      ],
      "stateMutability": "view",
      "type": "function"
    },
    {
      "inputs": [],
      "name": "TOKEN_ISSUED",
      "outputs": [
        {
          "internalType": "string",
          "name": "",
          "type": "string"
        }
      ],
      "stateMutability": "view",
      "type": "function"
    },
    {
      "inputs": [
        {
          "components": [
            {
              "internalType": "uint256",
              "name": "addr_id",
              "type": "uint256"
            },
            {
              "internalType": "string",
              "name": "addr",
              "type": "string"
            },
            {
              "internalType": "string",
              "name": "contact_number",
              "type": "string"
            }
          ],
          "internalType": "struct Data_Types.User_Address",
          "name": "newAddress",
          "type": "tuple"
        },
        {
          "internalType": "address",
          "name": "user_address",
          "type": "address"
        }
      ],
      "name": "addAddress",
      "outputs": [],
      "stateMutability": "nonpayable",
      "type": "function"
    },
    {
      "inputs": [
        {
          "internalType": "string",
          "name": "addr",
          "type": "string"
        },
        {
          "internalType": "string",
          "name": "contact_number",
          "type": "string"
        }
      ],
      "name": "addContactDetails",
      "outputs": [],
      "stateMutability": "nonpayable",
      "type": "function"
    },
    {
      "inputs": [
        {
          "components": [
            {
              "internalType": "uint256",
              "name": "product_id",
              "type": "uint256"
            },
            {
              "internalType": "string",
              "name": "product_name",
              "type": "string"
            },
            {
              "internalType": "uint256",
              "name": "price",
              "type": "uint256"
            },
            {
              "internalType": "uint256",
              "name": "stock",
              "type": "uint256"
            },
            {
              "internalType": "uint256",
              "name": "max_limit_per_purchase",
              "type": "uint256"
            },
            {
              "internalType": "uint256",
              "name": "delivery_charges",
              "type": "uint256"
            },
            {
              "internalType": "address",
              "name": "owner_id",
              "type": "address"
            },
            {
              "internalType": "string[5]",
              "name": "tags",
              "type": "string[5]"
            }
          ],
          "internalType": "struct Data_Types.Product",
          "name": "newProduct",
          "type": "tuple"
        }
      ],
      "name": "addProduct",
      "outputs": [],
      "stateMutability": "nonpayable",
      "type": "function"
    },
    {
      "inputs": [
        {
          "components": [
            {
              "internalType": "string",
              "name": "transaction_type",
              "type": "string"
            },
            {
              "internalType": "uint256",
              "name": "transaction_id",
              "type": "uint256"
            },
            {
              "internalType": "uint256",
              "name": "amount",
              "type": "uint256"
            },
            {
              "internalType": "string",
              "name": "status",
              "type": "string"
            },
            {
              "internalType": "uint256",
              "name": "delivery_charges",
              "type": "uint256"
            },
            {
              "internalType": "uint256",
              "name": "platform_fee",
              "type": "uint256"
            },
            {
              "internalType": "uint256",
              "name": "order_id",
              "type": "uint256"
            },
            {
              "internalType": "uint256",
              "name": "convinience_fee",
              "type": "uint256"
            },
            {
              "internalType": "uint256",
              "name": "token_charges",
              "type": "uint256"
            }
          ],
          "internalType": "struct Data_Types.Transaction",
          "name": "transaction",
          "type": "tuple"
        },
        {
          "internalType": "address",
          "name": "id",
          "type": "address"
        }
      ],
      "name": "addTransaction",
      "outputs": [],
      "stateMutability": "nonpayable",
      "type": "function"
    },
    {
      "inputs": [
        {
          "components": [
            {
              "internalType": "string",
              "name": "name",
              "type": "string"
            },
            {
              "internalType": "address",
              "name": "user_address",
              "type": "address"
            }
          ],
          "internalType": "struct Data_Types.User",
          "name": "newUser",
          "type": "tuple"
        }
      ],
      "name": "addUser",
      "outputs": [],
      "stateMutability": "nonpayable",
      "type": "function"
    },
    {
      "inputs": [],
      "name": "burnTokensAndInitiateShipment",
      "outputs": [],
      "stateMutability": "nonpayable",
      "type": "function"
    },
    {
      "inputs": [
        {
          "internalType": "uint256",
          "name": "product_id",
          "type": "uint256"
        },
        {
          "internalType": "uint256",
          "name": "quantity",
          "type": "uint256"
        }
      ],
      "name": "buyProduct",
      "outputs": [],
      "stateMutability": "payable",
      "type": "function"
    },
    {
      "inputs": [
        {
          "internalType": "address",
          "name": "buyer_id",
          "type": "address"
        },
        {
          "internalType": "uint256",
          "name": "index",
          "type": "uint256"
        }
      ],
      "name": "cancelOrder",
      "outputs": [],
      "stateMutability": "nonpayable",
      "type": "function"
    },
    {
      "inputs": [],
      "name": "cancelShipment",
      "outputs": [],
      "stateMutability": "nonpayable",
      "type": "function"
    },
    {
      "inputs": [
        {
          "internalType": "uint256",
          "name": "id",
          "type": "uint256"
        }
      ],
      "name": "deleteProduct",
      "outputs": [],
      "stateMutability": "nonpayable",
      "type": "function"
    },
    {
      "inputs": [
        {
          "internalType": "uint256",
          "name": "product_id",
          "type": "uint256"
        }
      ],
      "name": "deleteProductFromListing",
      "outputs": [],
      "stateMutability": "nonpayable",
      "type": "function"
    },
    {
      "inputs": [
        {
          "internalType": "address",
          "name": "buyer_id",
          "type": "address"
        },
        {
          "internalType": "uint256",
          "name": "order_id",
          "type": "uint256"
        }
      ],
      "name": "deliverProduct",
      "outputs": [],
      "stateMutability": "nonpayable",
      "type": "function"
    },
    {
      "inputs": [
        {
          "components": [
            {
              "internalType": "uint256",
              "name": "addr_id",
              "type": "uint256"
            },
            {
              "internalType": "string",
              "name": "addr",
              "type": "string"
            },
            {
              "internalType": "string",
              "name": "contact_number",
              "type": "string"
            }
          ],
          "internalType": "struct Data_Types.User_Address",
          "name": "newAddress",
          "type": "tuple"
        },
        {
          "internalType": "address",
          "name": "user_address",
          "type": "address"
        },
        {
          "internalType": "uint256",
          "name": "id",
          "type": "uint256"
        }
      ],
      "name": "editAddress",
      "outputs": [],
      "stateMutability": "nonpayable",
      "type": "function"
    },
    {
      "inputs": [
        {
          "components": [
            {
              "internalType": "uint256",
              "name": "product_id",
              "type": "uint256"
            },
            {
              "internalType": "string",
              "name": "product_name",
              "type": "string"
            },
            {
              "internalType": "uint256",
              "name": "price",
              "type": "uint256"
            },
            {
              "internalType": "uint256",
              "name": "stock",
              "type": "uint256"
            },
            {
              "internalType": "uint256",
              "name": "max_limit_per_purchase",
              "type": "uint256"
            },
            {
              "internalType": "uint256",
              "name": "delivery_charges",
              "type": "uint256"
            },
            {
              "internalType": "address",
              "name": "owner_id",
              "type": "address"
            },
            {
              "internalType": "string[5]",
              "name": "tags",
              "type": "string[5]"
            }
          ],
          "internalType": "struct Data_Types.Product",
          "name": "newProduct",
          "type": "tuple"
        },
        {
          "internalType": "uint256",
          "name": "id",
          "type": "uint256"
        }
      ],
      "name": "editProduct",
      "outputs": [],
      "stateMutability": "nonpayable",
      "type": "function"
    },
    {
      "inputs": [],
      "name": "escrow_amount",
      "outputs": [
        {
          "internalType": "uint256",
          "name": "",
          "type": "uint256"
        }
      ],
      "stateMutability": "view",
      "type": "function"
    },
    {
      "inputs": [
        {
          "internalType": "uint256",
          "name": "lotSize",
          "type": "uint256"
        },
        {
          "internalType": "uint256",
          "name": "pageNumber",
          "type": "uint256"
        }
      ],
      "name": "getProducts",
      "outputs": [
        {
          "components": [
            {
              "internalType": "uint256",
              "name": "product_id",
              "type": "uint256"
            },
            {
              "internalType": "string",
              "name": "product_name",
              "type": "string"
            },
            {
              "internalType": "uint256",
              "name": "price",
              "type": "uint256"
            },
            {
              "internalType": "uint256",
              "name": "stock",
              "type": "uint256"
            },
            {
              "internalType": "uint256",
              "name": "max_limit_per_purchase",
              "type": "uint256"
            },
            {
              "internalType": "uint256",
              "name": "delivery_charges",
              "type": "uint256"
            },
            {
              "internalType": "address",
              "name": "owner_id",
              "type": "address"
            },
            {
              "internalType": "string[5]",
              "name": "tags",
              "type": "string[5]"
            }
          ],
          "internalType": "struct Data_Types.Product[]",
          "name": "",
          "type": "tuple[]"
        }
      ],
      "stateMutability": "view",
      "type": "function"
    },
    {
      "inputs": [
        {
          "internalType": "uint256",
          "name": "product_id",
          "type": "uint256"
        },
        {
          "internalType": "string",
          "name": "product_name",
          "type": "string"
        },
        {
          "internalType": "uint256",
          "name": "price",
          "type": "uint256"
        },
        {
          "internalType": "uint256",
          "name": "stock",
          "type": "uint256"
        },
        {
          "internalType": "uint256",
          "name": "max_limit_per_purchase",
          "type": "uint256"
        },
        {
          "internalType": "uint256",
          "name": "delivery_charges",
          "type": "uint256"
        },
        {
          "internalType": "string[5]",
          "name": "tags",
          "type": "string[5]"
        }
      ],
      "name": "listProduct",
      "outputs": [],
      "stateMutability": "nonpayable",
      "type": "function"
    },
    {
      "inputs": [
        {
          "internalType": "uint256",
          "name": "lotSize",
          "type": "uint256"
        },
        {
          "internalType": "uint256",
          "name": "pageNumber",
          "type": "uint256"
        }
      ],
      "name": "listProducts",
      "outputs": [
        {
          "components": [
            {
              "internalType": "uint256",
              "name": "product_id",
              "type": "uint256"
            },
            {
              "internalType": "string",
              "name": "product_name",
              "type": "string"
            },
            {
              "internalType": "uint256",
              "name": "price",
              "type": "uint256"
            },
            {
              "internalType": "uint256",
              "name": "stock",
              "type": "uint256"
            },
            {
              "internalType": "uint256",
              "name": "max_limit_per_purchase",
              "type": "uint256"
            },
            {
              "internalType": "uint256",
              "name": "delivery_charges",
              "type": "uint256"
            },
            {
              "internalType": "address",
              "name": "owner_id",
              "type": "address"
            },
            {
              "internalType": "string[5]",
              "name": "tags",
              "type": "string[5]"
            }
          ],
          "internalType": "struct Data_Types.Product[]",
          "name": "",
          "type": "tuple[]"
        }
      ],
      "stateMutability": "view",
      "type": "function"
    },
    {
      "inputs": [],
      "name": "loginUser",
      "outputs": [
        {
          "internalType": "bool",
          "name": "",
          "type": "bool"
        }
      ],
      "stateMutability": "view",
      "type": "function"
    },
    {
      "inputs": [
        {
          "internalType": "address",
          "name": "buyer_id",
          "type": "address"
        },
        {
          "internalType": "uint256",
          "name": "index",
          "type": "uint256"
        }
      ],
      "name": "markAsDelivered",
      "outputs": [],
      "stateMutability": "nonpayable",
      "type": "function"
    },
    {
      "inputs": [
        {
          "internalType": "address",
          "name": "buyer_id",
          "type": "address"
        },
        {
          "internalType": "uint256",
          "name": "index",
          "type": "uint256"
        }
      ],
      "name": "markTransactionAsPaid",
      "outputs": [],
      "stateMutability": "nonpayable",
      "type": "function"
    },
    {
      "inputs": [
        {
          "internalType": "string",
          "name": "addr",
          "type": "string"
        },
        {
          "internalType": "string",
          "name": "contact_number",
          "type": "string"
        },
        {
          "internalType": "uint256",
          "name": "id",
          "type": "uint256"
        }
      ],
      "name": "modifyContactDetails",
      "outputs": [],
      "stateMutability": "nonpayable",
      "type": "function"
    },
    {
      "inputs": [
        {
          "internalType": "uint256",
          "name": "product_id",
          "type": "uint256"
        },
        {
          "internalType": "string",
          "name": "product_name",
          "type": "string"
        },
        {
          "internalType": "uint256",
          "name": "price",
          "type": "uint256"
        },
        {
          "internalType": "uint256",
          "name": "stock",
          "type": "uint256"
        },
        {
          "internalType": "uint256",
          "name": "max_limit_per_purchase",
          "type": "uint256"
        },
        {
          "internalType": "uint256",
          "name": "delivery_charges",
          "type": "uint256"
        },
        {
          "internalType": "string[5]",
          "name": "tags",
          "type": "string[5]"
        }
      ],
      "name": "modifyListedProduct",
      "outputs": [],
      "stateMutability": "nonpayable",
      "type": "function"
    },
    {
      "inputs": [
        {
          "internalType": "address",
          "name": "",
          "type": "address"
        },
        {
          "internalType": "uint256",
          "name": "",
          "type": "uint256"
        }
      ],
      "name": "order_list",
      "outputs": [
        {
          "internalType": "uint256",
          "name": "order_id",
          "type": "uint256"
        },
        {
          "internalType": "string",
          "name": "order_status",
          "type": "string"
        },
        {
          "internalType": "uint256",
          "name": "product_id",
          "type": "uint256"
        },
        {
          "internalType": "uint256",
          "name": "quantity",
          "type": "uint256"
        },
        {
          "internalType": "address",
          "name": "buyer_id",
          "type": "address"
        }
      ],
      "stateMutability": "view",
      "type": "function"
    },
    {
      "inputs": [
        {
          "internalType": "address",
          "name": "",
          "type": "address"
        },
        {
          "internalType": "uint256",
          "name": "",
          "type": "uint256"
        }
      ],
      "name": "order_transaction_list",
      "outputs": [
        {
          "internalType": "string",
          "name": "transaction_type",
          "type": "string"
        },
        {
          "internalType": "uint256",
          "name": "transaction_id",
          "type": "uint256"
        },
        {
          "internalType": "uint256",
          "name": "amount",
          "type": "uint256"
        },
        {
          "internalType": "string",
          "name": "status",
          "type": "string"
        },
        {
          "internalType": "uint256",
          "name": "delivery_charges",
          "type": "uint256"
        },
        {
          "internalType": "uint256",
          "name": "platform_fee",
          "type": "uint256"
        },
        {
          "internalType": "uint256",
          "name": "order_id",
          "type": "uint256"
        },
        {
          "internalType": "uint256",
          "name": "convinience_fee",
          "type": "uint256"
        },
        {
          "internalType": "uint256",
          "name": "token_charges",
          "type": "uint256"
        }
      ],
      "stateMutability": "view",
      "type": "function"
    },
    {
      "inputs": [],
      "name": "owner",
      "outputs": [
        {
          "internalType": "address",
          "name": "",
          "type": "address"
        }
      ],
      "stateMutability": "view",
      "type": "function"
    },
    {
      "inputs": [
        {
          "components": [
            {
              "internalType": "uint256",
              "name": "order_id",
              "type": "uint256"
            },
            {
              "internalType": "string",
              "name": "order_status",
              "type": "string"
            },
            {
              "internalType": "uint256",
              "name": "product_id",
              "type": "uint256"
            },
            {
              "internalType": "uint256",
              "name": "quantity",
              "type": "uint256"
            },
            {
              "internalType": "address",
              "name": "buyer_id",
              "type": "address"
            }
          ],
          "internalType": "struct Data_Types.Order",
          "name": "newOrder",
          "type": "tuple"
        },
        {
          "internalType": "address",
          "name": "id",
          "type": "address"
        }
      ],
      "name": "placeOrder",
      "outputs": [],
      "stateMutability": "nonpayable",
      "type": "function"
    },
    {
      "inputs": [
        {
          "internalType": "uint256",
          "name": "",
          "type": "uint256"
        }
      ],
      "name": "product_list",
      "outputs": [
        {
          "internalType": "uint256",
          "name": "product_id",
          "type": "uint256"
        },
        {
          "internalType": "string",
          "name": "product_name",
          "type": "string"
        },
        {
          "internalType": "uint256",
          "name": "price",
          "type": "uint256"
        },
        {
          "internalType": "uint256",
          "name": "stock",
          "type": "uint256"
        },
        {
          "internalType": "uint256",
          "name": "max_limit_per_purchase",
          "type": "uint256"
        },
        {
          "internalType": "uint256",
          "name": "delivery_charges",
          "type": "uint256"
        },
        {
          "internalType": "address",
          "name": "owner_id",
          "type": "address"
        }
      ],
      "stateMutability": "view",
      "type": "function"
    },
    {
      "inputs": [
        {
          "internalType": "uint256",
          "name": "",
          "type": "uint256"
        }
      ],
      "name": "product_mapping",
      "outputs": [
        {
          "internalType": "uint256",
          "name": "",
          "type": "uint256"
        }
      ],
      "stateMutability": "view",
      "type": "function"
    },
    {
      "inputs": [
        {
          "internalType": "string",
          "name": "name",
          "type": "string"
        },
        {
          "internalType": "string",
          "name": "addr",
          "type": "string"
        },
        {
          "internalType": "string",
          "name": "contact_number",
          "type": "string"
        }
      ],
      "name": "registerUser",
      "outputs": [
        {
          "internalType": "bool",
          "name": "",
          "type": "bool"
        }
      ],
      "stateMutability": "nonpayable",
      "type": "function"
    },
    {
      "inputs": [
        {
          "internalType": "address",
          "name": "",
          "type": "address"
        },
        {
          "internalType": "uint256",
          "name": "",
          "type": "uint256"
        }
      ],
      "name": "user_addresses",
      "outputs": [
        {
          "internalType": "uint256",
          "name": "addr_id",
          "type": "uint256"
        },
        {
          "internalType": "string",
          "name": "addr",
          "type": "string"
        },
        {
          "internalType": "string",
          "name": "contact_number",
          "type": "string"
        }
      ],
      "stateMutability": "view",
      "type": "function"
    },
    {
      "inputs": [
        {
          "internalType": "address",
          "name": "",
          "type": "address"
        }
      ],
      "name": "user_list",
      "outputs": [
        {
          "internalType": "string",
          "name": "name",
          "type": "string"
        },
        {
          "internalType": "address",
          "name": "user_address",
          "type": "address"
        }
      ],
      "stateMutability": "view",
      "type": "function"
    }
  ],
  "bytecode": "0x60c0604052600960809081526811195b1a5d995c995960ba1b60a0526000906200002a908262000243565b5060408051808201909152600981526810d85b98d95b1b195960ba1b60208201526001906200005a908262000243565b5060408051808201909152600a815269125b88151c985b9cda5d60b21b60208201526002906200008b908262000243565b5060408051808201909152600c81526b151bdad95b88125cdcdd595960a21b6020820152600390620000be908262000243565b5060408051808201909152600381526242757960e81b6020820152600490620000e8908262000243565b506040805180820190915260068152651499599d5b9960d21b602082015260059062000115908262000243565b5060408051808201909152600481526314185a5960e21b602082015260069062000140908262000243565b5060408051808201909152600b81526a4f75747374616e64696e6760a81b602082015260079062000172908262000243565b5060006008553480156200018557600080fd5b50600980546001600160a01b031916331790556200030f565b634e487b7160e01b600052604160045260246000fd5b600181811c90821680620001c957607f821691505b602082108103620001ea57634e487b7160e01b600052602260045260246000fd5b50919050565b601f8211156200023e57600081815260208120601f850160051c81016020861015620002195750805b601f850160051c820191505b818110156200023a5782815560010162000225565b5050505b505050565b81516001600160401b038111156200025f576200025f6200019e565b6200027781620002708454620001b4565b84620001f0565b602080601f831160018114620002af5760008415620002965750858301515b600019600386901b1c1916600185901b1785556200023a565b600085815260208120601f198616915b82811015620002e057888601518255948401946001909101908401620002bf565b5085821015620002ff5787850151600019600388901b60f8161c191681555b5050505050600190811b01905550565b6141d0806200031f6000396000f3fe60806040526004361061023b5760003560e01c8063a19ed6861161012e578063d0e827ba116100ab578063eba7a0691161006f578063eba7a069146106a8578063ed51e872146106c8578063ed90c7b7146106f9578063f080b27514610719578063f6d8e65f1461073957600080fd5b8063d0e827ba146105eb578063d31a03c21461060b578063d637dcfa14610620578063ea1e34d014610640578063eb5ba90f1461067557600080fd5b8063ae71dcdf116100f2578063ae71dcdf14610580578063b4abba1c14610595578063c61848ab146105ab578063c8adefd3146103d2578063ca78e7c2146105cb57600080fd5b8063a19ed686146104e2578063a2d31cb514610507578063a352313c14610527578063a8d6702d1461053c578063ac11addd1461056b57600080fd5b80635e22f779116101bc57806379e9b8891161018057806379e9b889146104355780637afcd7011461044a5780638c4014481461046a5780638da5cb5b1461048a57806390ba1612146104c257600080fd5b80635e22f779146103925780635fbff97d146103b25780636321e0bf146103d257806366b0831f146103e75780636a2061371461041557600080fd5b80633cb32228116102035780633cb32228146103155780633ef3486914610335578063439678331461034a57806345340f2f1461036a57806353b628661461037f57600080fd5b806301ab98061461024057806312ef78871461026b578063276e23a41461028d5780632c1e940b146102c85780632ee32ef8146102e8575b600080fd5b34801561024c57600080fd5b50610255610759565b6040516102629190613293565b60405180910390f35b34801561027757600080fd5b5061028b61028636600461342f565b6107e7565b005b34801561029957600080fd5b506102ba6102a83660046134c2565b600d6020526000908152604090205481565b604051908152602001610262565b3480156102d457600080fd5b5061028b6102e33660046134f7565b610a34565b3480156102f457600080fd5b50610308610303366004613521565b61125d565b604051610262919061357d565b34801561032157600080fd5b5061028b61033036600461364c565b611534565b34801561034157600080fd5b506102556115d5565b34801561035657600080fd5b5061028b610365366004613739565b6115e2565b34801561037657600080fd5b5061025561167a565b61028b61038d366004613521565b611687565b34801561039e57600080fd5b5061028b6103ad36600461342f565b611cc6565b3480156103be57600080fd5b5061028b6103cd3660046134f7565b611f04565b3480156103de57600080fd5b5061028b611fd3565b3480156103f357600080fd5b506104076104023660046137cc565b61200f565b6040516102629291906137e7565b34801561042157600080fd5b5061028b6104303660046134f7565b6120bc565b34801561044157600080fd5b50610255612156565b34801561045657600080fd5b5061028b6104653660046138c3565b612163565b34801561047657600080fd5b50610308610485366004613521565b612286565b34801561049657600080fd5b506009546104aa906001600160a01b031681565b6040516001600160a01b039091168152602001610262565b3480156104ce57600080fd5b5061028b6104dd3660046138ff565b612339565b3480156104ee57600080fd5b506104f7612460565b6040519015158152602001610262565b34801561051357600080fd5b5061028b6105223660046139fe565b6124a8565b34801561053357600080fd5b50610255612541565b34801561054857600080fd5b5061055c6105573660046134f7565b61254e565b60405161026293929190613a42565b34801561057757600080fd5b506102556126a5565b34801561058c57600080fd5b506102556126b2565b3480156105a157600080fd5b506102ba60085481565b3480156105b757600080fd5b5061028b6105c63660046134f7565b6126bf565b3480156105d757600080fd5b5061028b6105e6366004613a77565b61270f565b3480156105f757600080fd5b5061028b6106063660046134c2565b6127d1565b34801561061757600080fd5b50610255612817565b34801561062c57600080fd5b506104f761063b366004613b1b565b612824565b34801561064c57600080fd5b5061066061065b3660046134f7565b612a80565b60405161026299989796959493929190613ba2565b34801561068157600080fd5b506106956106903660046134c2565b612bfb565b6040516102629796959493929190613c04565b3480156106b457600080fd5b5061028b6106c3366004613c50565b612cdb565b3480156106d457600080fd5b506106e86106e33660046134f7565b612dd4565b604051610262959493929190613c94565b34801561070557600080fd5b5061028b6107143660046134c2565b612eba565b34801561072557600080fd5b5061028b610734366004613cd3565b612efd565b34801561074557600080fd5b5061028b610754366004613d36565b612fef565b6004805461076690613d8c565b80601f016020809104026020016040519081016040528092919081815260200182805461079290613d8c565b80156107df5780601f106107b4576101008083540402835291602001916107df565b820191906000526020600020905b8154815290600101906020018083116107c257829003601f168201915b505050505081565b336000818152600a60205260408120805461080190613d8c565b9050116108295760405162461bcd60e51b815260040161082090613dc6565b60405180910390fd5b6000881161086e5760405162461bcd60e51b8152602060048201526012602482015271125b9d985b1a5908141c9bd91d58dd08125160721b6044820152606401610820565b60008751116108b65760405162461bcd60e51b8152602060048201526014602482015273496e76616c69642050726f64756374204e616d6560601b6044820152606401610820565b600086116108f65760405162461bcd60e51b815260206004820152600d60248201526c496e76616c696420507269636560981b6044820152606401610820565b600085116109365760405162461bcd60e51b815260206004820152600d60248201526c496e76616c69642053746f636b60981b6044820152606401610820565b6000841180156109465750600584105b6109825760405162461bcd60e51b815260206004820152600d60248201526c125b9d985b1a5908131a5b5a5d609a1b6044820152606401610820565b6000888152600d602052604081205490036109d85760405162461bcd60e51b8152602060048201526016602482015275283937b23ab1ba103237b2b9b713ba1032bc34b9ba1760511b6044820152606401610820565b60006040518061010001604052808a8152602001898152602001888152602001878152602001868152602001858152602001336001600160a01b03168152602001848152509050610a29818a612cdb565b505050505050505050565b336000818152600a602052604081208054610a4e90613d8c565b905011610a6d5760405162461bcd60e51b815260040161082090613dc6565b6001600160a01b0383166000908152600e6020526040902054610ac55760405162461bcd60e51b815260206004820152601060248201526f125b9d985b1a590813dc99195c88125160821b6044820152606401610820565b60008060005b6001600160a01b0386166000908152600e6020526040902054811015610b49576001600160a01b0386166000908152600e60205260409020805486919083908110610b1857610b18613e0a565b90600052602060002090600502016000015403610b3757809250600191505b80610b4181613e36565b915050610acb565b5080600114610b905760405162461bcd60e51b8152602060048201526013602482015272139bc81cdd58da081bdc99195c88199bdd5b99606a1b6044820152606401610820565b6001600160a01b0385166000908152600e60205260408120805484908110610bba57610bba613e0a565b90600052602060002090600502016040518060a001604052908160008201548152602001600182018054610bed90613d8c565b80601f0160208091040260200160405190810160405280929190818152602001828054610c1990613d8c565b8015610c665780601f10610c3b57610100808354040283529160200191610c66565b820191906000526020600020905b815481529060010190602001808311610c4957829003601f168201915b5050505050815260200160028201548152602001600382015481526020016004820160009054906101000a90046001600160a01b03166001600160a01b03166001600160a01b03168152505090506000600c6001600d60008560400151815260200190815260200160002054610cdc9190613e4f565b81548110610cec57610cec613e0a565b90600052602060002090600c02016040518061010001604052908160008201548152602001600182018054610d2090613d8c565b80601f0160208091040260200160405190810160405280929190818152602001828054610d4c90613d8c565b8015610d995780601f10610d6e57610100808354040283529160200191610d99565b820191906000526020600020905b815481529060010190602001808311610d7c57829003601f168201915b505050918352505060028201546020820152600382015460408083019190915260048301546060830152600580840154608084015260068401546001600160a01b031660a080850191909152825190810190925260c09092019160078401906000835b82821015610e9f578382018054610e1290613d8c565b80601f0160208091040260200160405190810160405280929190818152602001828054610e3e90613d8c565b8015610e8b5780601f10610e6057610100808354040283529160200191610e8b565b820191906000526020600020905b815481529060010190602001808311610e6e57829003601f168201915b505050505081526020019060010190610dfc565b505050508152505090508060c001516001600160a01b0316336001600160a01b031614610f285760405162461bcd60e51b815260206004820152603160248201527f596f7520617265206e6f7420617574686f72697a656420746f206d61726b20746044820152703434b99030b9903232b634bb32b932b21760791b6064820152608401610820565b6002604051602001610f3a9190613e62565b604051602081830303815290604052805190602001208260200151604051602001610f659190613ed8565b6040516020818303038152906040528051906020012014610fc85760405162461bcd60e51b815260206004820152601c60248201527f5468697320616374696f6e206973206e6f74207065726d6974746564000000006044820152606401610820565b60008060005b6001600160a01b038a166000908152600f6020526040902054811015611171576001600160a01b038a166000908152600f6020526040902080548a91908390811061101b5761101b613e0a565b9060005260206000209060090201600601541480156110c0575060046040516020016110479190613e62565b60408051601f1981840301815291815281516020928301206001600160a01b038d166000908152600f909352912080548390811061108757611087613e0a565b90600052602060002090600902016000016040516020016110a89190613e62565b60405160208183030381529060405280519060200120145b8015611152575060076040516020016110d99190613e62565b60408051601f1981840301815291815281516020928301206001600160a01b038d166000908152600f909352912080548390811061111957611119613e0a565b906000526020600020906009020160030160405160200161113a9190613e62565b60405160208183030381529060405280519060200120145b1561115f57809250600191505b8061116981613e36565b915050610fce565b50806000036111c25760405162461bcd60e51b815260206004820152601b60248201527f4e6f2076616c6964207472616e73616374696f6e20666f756e642e00000000006044820152606401610820565b60008360a00151846040015186606001516111dd9190613ef4565b6111e79190613f0b565b9050600033905081600860008282546112009190613e4f565b90915550506040516001600160a01b0382169083156108fc029084906000818181858888f1935050505015801561123b573d6000803e3d6000fd5b506112468b89611f04565b6112508b856126bf565b5050505050505050505050565b6060600061126c600184613e4f565b6112769085613ef4565b90506000611285600186613e4f565b61128f9083613f0b565b600c549091508111156112ae57600c546112ab90600190613e4f565b90505b60006112ba8383613e4f565b6112c5906001613f0b565b6001600160401b038111156112dc576112dc6132ad565b60405190808252806020026020018201604052801561131557816020015b61130261311d565b8152602001906001900390816112fa5790505b509050825b82811161152857600c818154811061133457611334613e0a565b90600052602060002090600c0201604051806101000160405290816000820154815260200160018201805461136890613d8c565b80601f016020809104026020016040519081016040528092919081815260200182805461139490613d8c565b80156113e15780601f106113b6576101008083540402835291602001916113e1565b820191906000526020600020905b8154815290600101906020018083116113c457829003601f168201915b505050918352505060028201546020820152600382015460408083019190915260048301546060830152600580840154608084015260068401546001600160a01b031660a080850191909152825190810190925260c09092019160078401906000835b828210156114e757838201805461145a90613d8c565b80601f016020809104026020016040519081016040528092919081815260200182805461148690613d8c565b80156114d35780601f106114a8576101008083540402835291602001916114d3565b820191906000526020600020905b8154815290600101906020018083116114b657829003601f168201915b505050505081526020019060010190611444565b5050509152508390506114fa8684613e4f565b8151811061150a5761150a613e0a565b6020026020010181905250808061152090613e36565b91505061131a565b50925050505b92915050565b6001600160a01b0381166000908152600f60209081526040822080546001810182559083529120835184926009029091019081906115729082613f6c565b5060208201516001820155604082015160028201556060820151600382019061159b9082613f6c565b506080820151816004015560a0820151816005015560c0820151816006015560e08201518160070155610100820151816008015550505050565b6000805461076690613d8c565b6020808201516001600160a01b03166000908152600a90915260409020815182919081906116109082613f6c565b5060209182015160019190910180546001600160a01b0319166001600160a01b0390921691909117905581015181516040517f48cac28ad4dc618e15f4c2dd5e97751182f166de97b25618318b2112aa951a2f9261166f92909161402b565b60405180910390a150565b6007805461076690613d8c565b336000818152600a6020526040812080546116a190613d8c565b9050116116c05760405162461bcd60e51b815260040161082090613dc6565b6000838152600d602052604081205490036117155760405162461bcd60e51b8152602060048201526015602482015274141c9bd91d58dd08191bd95cdb89dd08195e1a5cdd605a1b6044820152606401610820565b6000838152600d6020526040902054600c9061173390600190613e4f565b8154811061174357611743613e0a565b90600052602060002090600c0201600401548211156117745760405162461bcd60e51b81526004016108209061404f565b6000838152600d6020526040902054600c9061179290600190613e4f565b815481106117a2576117a2613e0a565b90600052602060002090600c0201600301548211156117d35760405162461bcd60e51b81526004016108209061404f565b6000838152600d6020526040902054600c906117f190600190613e4f565b8154811061180157611801613e0a565b600091825260209091206006600c9092020101546001600160a01b0316330361186c5760405162461bcd60e51b815260206004820152601d60248201527f53656c6c65722063616e277420627579207468652070726f647563742e0000006044820152606401610820565b6000838152600d6020526040902054600c9061188a90600190613e4f565b8154811061189a5761189a613e0a565b90600052602060002090600c020160020154826118b79190613ef4565b6000848152600d6020526040902054600c906118d590600190613e4f565b815481106118e5576118e5613e0a565b90600052602060002090600c0201600501546119019190613f0b565b34146119405760405162461bcd60e51b815260206004820152600e60248201526d125b9d985b1a5908185b5bdd5b9d60921b6044820152606401610820565b6040805160a081018252336000908152600e602052918220548190611966906001613f0b565b81526020016002805461197890613d8c565b80601f01602080910402602001604051908101604052809291908181526020018280546119a490613d8c565b80156119f15780601f106119c6576101008083540402835291602001916119f1565b820191906000526020600020905b8154815290600101906020018083116119d457829003601f168201915b50505050508152602001858152602001848152602001336001600160a01b03168152509050611a20813361270f565b3460086000828254611a329190613f0b565b92505081905550600060405180610120016040528060048054611a5490613d8c565b80601f0160208091040260200160405190810160405280929190818152602001828054611a8090613d8c565b8015611acd5780601f10611aa257610100808354040283529160200191611acd565b820191906000526020600020905b815481529060010190602001808311611ab057829003601f168201915b5050509183525050336000908152600f6020908152604090912054910190611af6906001613f0b565b8152602001600c6001600d60008a815260200190815260200160002054611b1d9190613e4f565b81548110611b2d57611b2d613e0a565b90600052602060002090600c02016002015486611b4a9190613ef4565b6000888152600d6020526040902054600c90611b6890600190613e4f565b81548110611b7857611b78613e0a565b90600052602060002090600c020160050154611b949190613f0b565b815260200160078054611ba690613d8c565b80601f0160208091040260200160405190810160405280929190818152602001828054611bd290613d8c565b8015611c1f5780601f10611bf457610100808354040283529160200191611c1f565b820191906000526020600020905b815481529060010190602001808311611c0257829003601f168201915b50505050508152602001600c6001600d60008a815260200190815260200160002054611c4b9190613e4f565b81548110611c5b57611c5b613e0a565b90600052602060002090600c020160050154815260200160008152602001600e6000336001600160a01b03166001600160a01b031681526020019081526020016000208054905081526020016000815260200160008152509050611cbf8133611534565b5050505050565b336000818152600a602052604081208054611ce090613d8c565b905011611cff5760405162461bcd60e51b815260040161082090613dc6565b60008811611d445760405162461bcd60e51b8152602060048201526012602482015271125b9d985b1a5908141c9bd91d58dd08125160721b6044820152606401610820565b6000875111611d8c5760405162461bcd60e51b8152602060048201526014602482015273496e76616c69642050726f64756374204e616d6560601b6044820152606401610820565b60008611611dcc5760405162461bcd60e51b815260206004820152600d60248201526c496e76616c696420507269636560981b6044820152606401610820565b60008511611e0c5760405162461bcd60e51b815260206004820152600d60248201526c496e76616c69642053746f636b60981b6044820152606401610820565b600084118015611e1c5750600584105b611e585760405162461bcd60e51b815260206004820152600d60248201526c125b9d985b1a5908131a5b5a5d609a1b6044820152606401610820565b6000888152600d602052604090205415611eb45760405162461bcd60e51b815260206004820152601760248201527f50726f6475637420416c7265616479204578697374732e0000000000000000006044820152606401610820565b60006040518061010001604052808a8152602001898152602001888152602001878152602001868152602001858152602001336001600160a01b03168152602001848152509050610a2981612163565b6001600160a01b0382166000908152600e6020526040902080546001919083908110611f3257611f32613e0a565b90600052602060002090600502016001019081611f4f9190614091565b506001600160a01b0382166000908152600e6020526040902080547f963550b6437de999c8fc667b7be4e2248e7048f49357f1e8c9a9b2e190b2486b91849184908110611f9e57611f9e613e0a565b600091825260209182902060059091020154604080516001600160a01b03909416845291830152015b60405180910390a15050565b336000818152600a602052604081208054611fed90613d8c565b90501161200c5760405162461bcd60e51b815260040161082090613dc6565b50565b600a6020526000908152604090208054819061202a90613d8c565b80601f016020809104026020016040519081016040528092919081815260200182805461205690613d8c565b80156120a35780601f10612078576101008083540402835291602001916120a3565b820191906000526020600020905b81548152906001019060200180831161208657829003601f168201915b505050600190930154919250506001600160a01b031682565b6001600160a01b0382166000908152600e60205260409020805460019190839081106120ea576120ea613e0a565b906000526020600020906005020160010190816121079190614091565b506001600160a01b0382166000908152600e6020526040902080547fdd003742fb214507783ce004fe55f5ac14f89c6de4a7cd7487e47eb091c6226591849184908110611f9e57611f9e613e0a565b6003805461076690613d8c565b600c80546001810182556000829052825191027fdf6966c971051c3d54ec59162606531493a51404a002842f56009d7e5cf4a8c7810191825560208301518392917fdf6966c971051c3d54ec59162606531493a51404a002842f56009d7e5cf4a8c801906121d19082613f6c565b5060408201516002820155606082015160038201556080820151600482015560a082015160058083019190915560c08301516006830180546001600160a01b0319166001600160a01b0390921691909117905560e083015161223891600784019190613170565b5050600c5482516000908152600d60205260409081902091909155825190517fbcc0e36116309da282dcf13bde248ef63930f4114b68999c8570a86ffb3ab305925061166f91815260200190565b336000818152600a6020526040812080546060939291906122a690613d8c565b9050116122c55760405162461bcd60e51b815260040161082090613dc6565b60006122d2600185613e4f565b6122dc9086613ef4565b600c5490915081106123265760405162461bcd60e51b815260206004820152601360248201527224b73b30b634b2102830b3b290273ab6b132b960691b6044820152606401610820565b612330858561125d565b95945050505050565b336000818152600a60205260408120805461235390613d8c565b9050116123725760405162461bcd60e51b815260040161082090613dc6565b60008451116123935760405162461bcd60e51b815260040161082090614163565b60008351116123e45760405162461bcd60e51b815260206004820152601e60248201527f436f6e74616374204e756d6265722063616e6e6f7420626520656d70747900006044820152606401610820565b336000908152600b6020526040902054821080156124025750600082115b61243b5760405162461bcd60e51b815260206004820152600a602482015269125b9d985b1a5908125160b21b6044820152606401610820565b6040805160608101825283815260208101869052908101849052611cbf813385612fef565b336000818152600a60205260408120805491929183919061248090613d8c565b90501161249f5760405162461bcd60e51b815260040161082090613dc6565b600191505b5090565b6001600160a01b0381166000908152600b602090815260408220805460018181018355918452928290208551600390940201928355908401518492918201906124f19082613f6c565b50604082015160028201906125069082613f6c565b50506040516001600160a01b03831681527e72d7b5a6d066b81369ec908346284f0add888ef544b447dc56a6b58fd59f7f9150602001611fc7565b6005805461076690613d8c565b600b602052816000526040600020818154811061256a57600080fd5b90600052602060002090600302016000915091505080600001549080600101805461259490613d8c565b80601f01602080910402602001604051908101604052809291908181526020018280546125c090613d8c565b801561260d5780601f106125e25761010080835404028352916020019161260d565b820191906000526020600020905b8154815290600101906020018083116125f057829003601f168201915b50505050509080600201805461262290613d8c565b80601f016020809104026020016040519081016040528092919081815260200182805461264e90613d8c565b801561269b5780601f106126705761010080835404028352916020019161269b565b820191906000526020600020905b81548152906001019060200180831161267e57829003601f168201915b5050505050905083565b6002805461076690613d8c565b6001805461076690613d8c565b6001600160a01b0382166000908152600f60205260409020805460069190839081106126ed576126ed613e0a565b9060005260206000209060090201600301908161270a9190614091565b505050565b6001600160a01b0381166000908152600e602090815260408220805460018181018355918452928290208551600590940201928355908401518492918201906127589082613f6c565b50604082810151600283015560608301516003830155608092830151600490920180546001600160a01b0319166001600160a01b03938416179055918401518451835191909216815260208101919091527ff6f21bda482268b6851cb7d134c9ef42acd2e610afc2ce82688cd2799adacca39101611fc7565b336000818152600a6020526040812080546127eb90613d8c565b90501161280a5760405162461bcd60e51b815260040161082090613dc6565b61281382612eba565b5050565b6006805461076690613d8c565b60008084511161286d5760405162461bcd60e51b81526020600482015260146024820152734e616d652063616e6e6f7420626520656d70747960601b6044820152606401610820565b600083511161288e5760405162461bcd60e51b815260040161082090614163565b60008251116128df5760405162461bcd60e51b815260206004820152601e60248201527f436f6e74616374206e756d6265722063616e6e6f7420626520656d70747900006044820152606401610820565b336000908152600a6020526040808220815180830190925280548290829061290690613d8c565b80601f016020809104026020016040519081016040528092919081815260200182805461293290613d8c565b801561297f5780601f106129545761010080835404028352916020019161297f565b820191906000526020600020905b81548152906001019060200180831161296257829003601f168201915b5050509183525050600191909101546001600160a01b0316602090910152805151909150156129f05760405162461bcd60e51b815260206004820152601860248201527f5573657220616c726561647920726567697374657265642e00000000000000006044820152606401610820565b848152336020820152612a02816115e2565b60408051606081018252336000908152600b602081815284832080548086528286018b81529686018a905292825260018084018255908452922083516003909202019081559251919283929091820190612a5c9082613f6c565b5060408201516002820190612a719082613f6c565b50600198975050505050505050565b600f6020528160005260406000208181548110612a9c57600080fd5b906000526020600020906009020160009150915050806000018054612ac090613d8c565b80601f0160208091040260200160405190810160405280929190818152602001828054612aec90613d8c565b8015612b395780601f10612b0e57610100808354040283529160200191612b39565b820191906000526020600020905b815481529060010190602001808311612b1c57829003601f168201915b505050505090806001015490806002015490806003018054612b5a90613d8c565b80601f0160208091040260200160405190810160405280929190818152602001828054612b8690613d8c565b8015612bd35780601f10612ba857610100808354040283529160200191612bd3565b820191906000526020600020905b815481529060010190602001808311612bb657829003601f168201915b5050505050908060040154908060050154908060060154908060070154908060080154905089565b600c8181548110612c0b57600080fd5b60009182526020909120600c90910201805460018201805491935090612c3090613d8c565b80601f0160208091040260200160405190810160405280929190818152602001828054612c5c90613d8c565b8015612ca95780601f10612c7e57610100808354040283529160200191612ca9565b820191906000526020600020905b815481529060010190602001808311612c8c57829003601f168201915b50505060028401546003850154600486015460058701546006909701549596929591945092506001600160a01b031687565b6000818152600d60205260409020548290600c90612cfb90600190613e4f565b81548110612d0b57612d0b613e0a565b90600052602060002090600c0201600082015181600001556020820151816001019081612d389190613f6c565b5060408201516002820155606082015160038201556080820151600482015560a082015160058083019190915560c08301516006830180546001600160a01b0319166001600160a01b0390921691909117905560e0830151612d9f91600784019190613170565b505082516040519081527fdf4403a2bf96bdbb824bdda255c198a05c2bd6e94289c06dd6d36be78f657b3c9150602001611fc7565b600e6020528160005260406000208181548110612df057600080fd5b906000526020600020906005020160009150915050806000015490806001018054612e1a90613d8c565b80601f0160208091040260200160405190810160405280929190818152602001828054612e4690613d8c565b8015612e935780601f10612e6857610100808354040283529160200191612e93565b820191906000526020600020905b815481529060010190602001808311612e7657829003601f168201915b5050505060028301546003840154600490940154929390929091506001600160a01b031685565b6000818152600d602052604080822091909155517fc341cf326465fe622f86c468249e8c0cb03ed23ba376a6a34863a1374ac7d7699061166f9083815260200190565b336000818152600a602052604081208054612f1790613d8c565b905011612f365760405162461bcd60e51b815260040161082090613dc6565b6000835111612f575760405162461bcd60e51b815260040161082090614163565b6000825111612fa85760405162461bcd60e51b815260206004820152601e60248201527f436f6e74616374204e756d6265722063616e6e6f7420626520656d70747900006044820152606401610820565b60408051606081018252336000908152600b602052918220548190612fce906001613f0b565b8152602001858152602001848152509050612fe981336124a8565b50505050565b60005b6001600160a01b0383166000908152600b60205260409020548110156130db576001600160a01b0383166000908152600b6020526040902080548391908390811061303f5761303f613e0a565b906000526020600020906003020160000154036130c9576001600160a01b0383166000908152600b6020526040902080548591908390811061308357613083613e0a565b90600052602060002090600302016000820151816000015560208201518160010190816130b09190613f6c565b50604082015160028201906130c59082613f6c565b5050505b806130d381613e36565b915050612ff2565b506040516001600160a01b03831681527fb16982d76640eea581ccf843c5f94f939313d2cc7b033018a626676f0b0c3cdd9060200160405180910390a1505050565b60405180610100016040528060008152602001606081526020016000815260200160008152602001600081526020016000815260200160006001600160a01b0316815260200161316b6131b5565b905290565b82600581019282156131a9579160200282015b828111156131a957825182906131999082613f6c565b5091602001919060010190613183565b506124a49291506131dc565b6040518060a001604052806005905b60608152602001906001900390816131c45790505090565b808211156124a45760006131f082826131f9565b506001016131dc565b50805461320590613d8c565b6000825580601f10613215575050565b601f01602090049060005260206000209081019061200c91905b808211156124a4576000815560010161322f565b60005b8381101561325e578181015183820152602001613246565b50506000910152565b6000815180845261327f816020860160208601613243565b601f01601f19169290920160200192915050565b6020815260006132a66020830184613267565b9392505050565b634e487b7160e01b600052604160045260246000fd5b60405160a081016001600160401b03811182821017156132e5576132e56132ad565b60405290565b60405161012081016001600160401b03811182821017156132e5576132e56132ad565b60405161010081016001600160401b03811182821017156132e5576132e56132ad565b600082601f83011261334257600080fd5b81356001600160401b038082111561335c5761335c6132ad565b604051601f8301601f19908116603f01168101908282118183101715613384576133846132ad565b8160405283815286602085880101111561339d57600080fd5b836020870160208301376000602085830101528094505050505092915050565b600082601f8301126133ce57600080fd5b6133d66132c3565b8060a08401858111156133e857600080fd5b845b818110156134245780356001600160401b038111156134095760008081fd5b61341588828901613331565b855250602093840193016133ea565b509095945050505050565b600080600080600080600060e0888a03121561344a57600080fd5b8735965060208801356001600160401b038082111561346857600080fd5b6134748b838c01613331565b975060408a0135965060608a0135955060808a0135945060a08a0135935060c08a01359150808211156134a657600080fd5b506134b38a828b016133bd565b91505092959891949750929550565b6000602082840312156134d457600080fd5b5035919050565b80356001600160a01b03811681146134f257600080fd5b919050565b6000806040838503121561350a57600080fd5b613513836134db565b946020939093013593505050565b6000806040838503121561353457600080fd5b50508035926020909101359150565b60008260a081018360005b6005811015613424578383038752613567838351613267565b602097880197909350919091019060010161354e565b60006020808301818452808551808352604092508286019150828160051b87010184880160005b8381101561363e57603f1989840301855281516101008151855288820151818a8701526135d382870182613267565b838a0151878b0152606080850151908801526080808501519088015260a0808501519088015260c0808501516001600160a01b03169088015260e09384015187820394880194909452915061362a90508183613543565b9689019694505050908601906001016135a4565b509098975050505050505050565b6000806040838503121561365f57600080fd5b82356001600160401b038082111561367657600080fd5b90840190610120828703121561368b57600080fd5b6136936132eb565b8235828111156136a257600080fd5b6136ae88828601613331565b82525060208301356020820152604083013560408201526060830135828111156136d757600080fd5b6136e388828601613331565b6060830152506080830135608082015260a083013560a082015260c083013560c082015260e083013560e082015261010091508183013582820152809450505050613730602084016134db565b90509250929050565b60006020828403121561374b57600080fd5b81356001600160401b038082111561376257600080fd5b908301906040828603121561377657600080fd5b604051604081018181108382111715613791576137916132ad565b6040528235828111156137a357600080fd5b6137af87828601613331565b8252506137be602084016134db565b602082015295945050505050565b6000602082840312156137de57600080fd5b6132a6826134db565b6040815260006137fa6040830185613267565b905060018060a01b03831660208301529392505050565b6000610100828403121561382457600080fd5b61382c61330e565b90508135815260208201356001600160401b038082111561384c57600080fd5b61385885838601613331565b602084015260408401356040840152606084013560608401526080840135608084015260a084013560a084015261389160c085016134db565b60c084015260e08401359150808211156138aa57600080fd5b506138b7848285016133bd565b60e08301525092915050565b6000602082840312156138d557600080fd5b81356001600160401b038111156138eb57600080fd5b6138f784828501613811565b949350505050565b60008060006060848603121561391457600080fd5b83356001600160401b038082111561392b57600080fd5b61393787838801613331565b9450602086013591508082111561394d57600080fd5b5061395a86828701613331565b925050604084013590509250925092565b60006060828403121561397d57600080fd5b604051606081016001600160401b0382821081831117156139a0576139a06132ad565b816040528293508435835260208501359150808211156139bf57600080fd5b6139cb86838701613331565b602084015260408501359150808211156139e457600080fd5b506139f185828601613331565b6040830152505092915050565b60008060408385031215613a1157600080fd5b82356001600160401b03811115613a2757600080fd5b613a338582860161396b565b925050613730602084016134db565b838152606060208201526000613a5b6060830185613267565b8281036040840152613a6d8185613267565b9695505050505050565b60008060408385031215613a8a57600080fd5b82356001600160401b0380821115613aa157600080fd5b9084019060a08287031215613ab557600080fd5b613abd6132c3565b82358152602083013582811115613ad357600080fd5b613adf88828601613331565b6020830152506040830135604082015260608301356060820152613b05608084016134db565b60808201529350613730915050602084016134db565b600080600060608486031215613b3057600080fd5b83356001600160401b0380821115613b4757600080fd5b613b5387838801613331565b94506020860135915080821115613b6957600080fd5b613b7587838801613331565b93506040860135915080821115613b8b57600080fd5b50613b9886828701613331565b9150509250925092565b6000610120808352613bb68184018d613267565b90508a60208401528960408401528281036060840152613bd6818a613267565b6080840198909852505060a081019490945260c084019290925260e083015261010090910152949350505050565b87815260e060208201526000613c1d60e0830189613267565b6040830197909752506060810194909452608084019290925260a08301526001600160a01b031660c09091015292915050565b60008060408385031215613c6357600080fd5b82356001600160401b03811115613c7957600080fd5b613c8585828601613811565b95602094909401359450505050565b85815260a060208201526000613cad60a0830187613267565b60408301959095525060608101929092526001600160a01b031660809091015292915050565b60008060408385031215613ce657600080fd5b82356001600160401b0380821115613cfd57600080fd5b613d0986838701613331565b93506020850135915080821115613d1f57600080fd5b50613d2c85828601613331565b9150509250929050565b600080600060608486031215613d4b57600080fd5b83356001600160401b03811115613d6157600080fd5b613d6d8682870161396b565b935050613d7c602085016134db565b9150604084013590509250925092565b600181811c90821680613da057607f821691505b602082108103613dc057634e487b7160e01b600052602260045260246000fd5b50919050565b60208082526024908201527f5573657220646f65736e27742065786973742e20506c656173652072656769736040820152633a32b91760e11b606082015260800190565b634e487b7160e01b600052603260045260246000fd5b634e487b7160e01b600052601160045260246000fd5b600060018201613e4857613e48613e20565b5060010190565b8181038181111561152e5761152e613e20565b6000808354613e7081613d8c565b60018281168015613e885760018114613e9d57613ecc565b60ff1984168752821515830287019450613ecc565b8760005260208060002060005b85811015613ec35781548a820152908401908201613eaa565b50505082870194505b50929695505050505050565b60008251613eea818460208701613243565b9190910192915050565b808202811582820484141761152e5761152e613e20565b8082018082111561152e5761152e613e20565b601f82111561270a57600081815260208120601f850160051c81016020861015613f455750805b601f850160051c820191505b81811015613f6457828155600101613f51565b505050505050565b81516001600160401b03811115613f8557613f856132ad565b613f9981613f938454613d8c565b84613f1e565b602080601f831160018114613fce5760008415613fb65750858301515b600019600386901b1c1916600185901b178555613f64565b600085815260208120601f198616915b82811015613ffd57888601518255948401946001909101908401613fde565b508582101561401b5787850151600019600388901b60f8161c191681555b5050505050600190811b01905550565b6001600160a01b03831681526040602082018190526000906138f790830184613267565b60208082526022908201527f43616e6e6f742062757920746865206d656e74696f6e6564207175616e7469746040820152613c9760f11b606082015260800190565b81810361409c575050565b6140a68254613d8c565b6001600160401b038111156140bd576140bd6132ad565b6140cb81613f938454613d8c565b6000601f8211600181146140ff57600083156140e75750848201545b600019600385901b1c1916600184901b178455611cbf565b600085815260209020601f19841690600086815260209020845b838110156141395782860154825560019586019590910190602001614119565b508583101561401b5793015460001960f8600387901b161c19169092555050600190811b01905550565b60208082526017908201527f416464726573732063616e6e6f7420626520656d70747900000000000000000060408201526060019056fea2646970667358221220e6de3572f0f1add2e4870c9f3949485f5d26a9d83d0e329fcd0e6b4f0337950664736f6c63430008130033",
  "linkReferences": {},
  "deployedLinkReferences": {}
}