{
    "_format": "hh-sol-artifact-1",
    "contractName": "Functionality",
    "sourceName": "contracts/Functionality.sol",
    "abi": [
        {
            "anonymous": false,
            "inputs": [
                {
                    "indexed": false,
                    "internalType": "address",
                    "name": "orgAddress",
                    "type": "address"
                },
                {
                    "indexed": false,
                    "internalType": "string",
                    "name": "orgName",
                    "type": "string"
                }
            ],
            "name": "OrganizationRegistered",
            "type": "event"
        },
        {
            "anonymous": false,
            "inputs": [
                {
                    "indexed": false,
                    "internalType": "uint256",
                    "name": "project_id",
                    "type": "uint256"
                },
                {
                    "indexed": false,
                    "internalType": "string",
                    "name": "projectName",
                    "type": "string"
                },
                {
                    "indexed": false,
                    "internalType": "address",
                    "name": "org_id",
                    "type": "address"
                }
            ],
            "name": "ProjectAdded",
            "type": "event"
        },
        {
            "anonymous": false,
            "inputs": [
                {
                    "indexed": false,
                    "internalType": "uint256",
                    "name": "project_id",
                    "type": "uint256"
                },
                {
                    "indexed": false,
                    "internalType": "string",
                    "name": "projectName",
                    "type": "string"
                },
                {
                    "indexed": false,
                    "internalType": "address",
                    "name": "org_id",
                    "type": "address"
                }
            ],
            "name": "ProjectEdited",
            "type": "event"
        },
        {
            "anonymous": false,
            "inputs": [
                {
                    "indexed": false,
                    "internalType": "address",
                    "name": "userAddress",
                    "type": "address"
                },
                {
                    "indexed": false,
                    "internalType": "string",
                    "name": "username",
                    "type": "string"
                }
            ],
            "name": "UserRegistered",
            "type": "event"
        },
        {
            "inputs": [
                {
                    "components": [
                        {
                            "internalType": "uint256",
                            "name": "date",
                            "type": "uint256"
                        },
                        {
                            "components": [
                                {
                                    "internalType": "string",
                                    "name": "category",
                                    "type": "string"
                                },
                                {
                                    "internalType": "string",
                                    "name": "factor_name",
                                    "type": "string"
                                },
                                {
                                    "internalType": "string",
                                    "name": "value",
                                    "type": "string"
                                },
                                {
                                    "internalType": "string",
                                    "name": "value_type",
                                    "type": "string"
                                },
                                {
                                    "internalType": "uint256",
                                    "name": "emission_value",
                                    "type": "uint256"
                                }
                            ],
                            "internalType": "struct DataTypes.Emission[50]",
                            "name": "emissions",
                            "type": "tuple[50]"
                        }
                    ],
                    "internalType": "struct DataTypes.AddEmissionType",
                    "name": "args",
                    "type": "tuple"
                }
            ],
            "name": "addEmission",
            "outputs": [
                {
                    "internalType": "bool",
                    "name": "",
                    "type": "bool"
                }
            ],
            "stateMutability": "nonpayable",
            "type": "function"
        },
        {
            "inputs": [
                {
                    "internalType": "uint256",
                    "name": "date",
                    "type": "uint256"
                },
                {
                    "components": [
                        {
                            "internalType": "string",
                            "name": "category",
                            "type": "string"
                        },
                        {
                            "internalType": "string",
                            "name": "factor_name",
                            "type": "string"
                        },
                        {
                            "internalType": "string",
                            "name": "value",
                            "type": "string"
                        },
                        {
                            "internalType": "string",
                            "name": "value_type",
                            "type": "string"
                        },
                        {
                            "internalType": "uint256",
                            "name": "emission_value",
                            "type": "uint256"
                        }
                    ],
                    "internalType": "struct DataTypes.Emission[50]",
                    "name": "emissions",
                    "type": "tuple[50]"
                },
                {
                    "internalType": "address",
                    "name": "sender",
                    "type": "address"
                }
            ],
            "name": "addEmissionToList",
            "outputs": [
                {
                    "internalType": "bool",
                    "name": "",
                    "type": "bool"
                }
            ],
            "stateMutability": "nonpayable",
            "type": "function"
        },
        {
            "inputs": [
                {
                    "components": [
                        {
                            "internalType": "string",
                            "name": "name",
                            "type": "string"
                        },
                        {
                            "internalType": "address",
                            "name": "id",
                            "type": "address"
                        },
                        {
                            "internalType": "string",
                            "name": "email",
                            "type": "string"
                        }
                    ],
                    "internalType": "struct DataTypes.Organization",
                    "name": "newOrganization",
                    "type": "tuple"
                }
            ],
            "name": "addOrganization",
            "outputs": [],
            "stateMutability": "nonpayable",
            "type": "function"
        },
        {
            "inputs": [
                {
                    "components": [
                        {
                            "internalType": "string",
                            "name": "name",
                            "type": "string"
                        },
                        {
                            "internalType": "string",
                            "name": "description",
                            "type": "string"
                        },
                        {
                            "internalType": "string",
                            "name": "creditType",
                            "type": "string"
                        },
                        {
                            "internalType": "uint256",
                            "name": "creditQuantity",
                            "type": "uint256"
                        }
                    ],
                    "internalType": "struct DataTypes.ProjectType",
                    "name": "args",
                    "type": "tuple"
                }
            ],
            "name": "addProject",
            "outputs": [
                {
                    "internalType": "bool",
                    "name": "",
                    "type": "bool"
                }
            ],
            "stateMutability": "nonpayable",
            "type": "function"
        },
        {
            "inputs": [
                {
                    "components": [
                        {
                            "internalType": "uint256",
                            "name": "projectId",
                            "type": "uint256"
                        },
                        {
                            "internalType": "uint256",
                            "name": "quantity",
                            "type": "uint256"
                        }
                    ],
                    "internalType": "struct DataTypes.AddProjectToCartType",
                    "name": "args",
                    "type": "tuple"
                }
            ],
            "name": "addProjectToCart",
            "outputs": [
                {
                    "internalType": "bool",
                    "name": "",
                    "type": "bool"
                }
            ],
            "stateMutability": "nonpayable",
            "type": "function"
        },
        {
            "inputs": [
                {
                    "components": [
                        {
                            "internalType": "uint256",
                            "name": "projectId",
                            "type": "uint256"
                        },
                        {
                            "internalType": "uint256",
                            "name": "quantity",
                            "type": "uint256"
                        }
                    ],
                    "internalType": "struct DataTypes.AddProjectToCartType",
                    "name": "args",
                    "type": "tuple"
                },
                {
                    "internalType": "string",
                    "name": "creditType",
                    "type": "string"
                }
            ],
            "name": "addProjectToCartDB",
            "outputs": [
                {
                    "internalType": "bool",
                    "name": "",
                    "type": "bool"
                }
            ],
            "stateMutability": "nonpayable",
            "type": "function"
        },
        {
            "inputs": [
                {
                    "internalType": "uint256",
                    "name": "id",
                    "type": "uint256"
                },
                {
                    "components": [
                        {
                            "internalType": "uint256",
                            "name": "id",
                            "type": "uint256"
                        },
                        {
                            "internalType": "string",
                            "name": "name",
                            "type": "string"
                        },
                        {
                            "internalType": "address",
                            "name": "org_id",
                            "type": "address"
                        },
                        {
                            "internalType": "string",
                            "name": "description",
                            "type": "string"
                        },
                        {
                            "internalType": "string",
                            "name": "status",
                            "type": "string"
                        },
                        {
                            "internalType": "uint256",
                            "name": "creditQuantity",
                            "type": "uint256"
                        },
                        {
                            "internalType": "string",
                            "name": "creditType",
                            "type": "string"
                        }
                    ],
                    "internalType": "struct DataTypes.Project",
                    "name": "args",
                    "type": "tuple"
                }
            ],
            "name": "addProjectToList",
            "outputs": [
                {
                    "internalType": "bool",
                    "name": "",
                    "type": "bool"
                }
            ],
            "stateMutability": "nonpayable",
            "type": "function"
        },
        {
            "inputs": [
                {
                    "components": [
                        {
                            "internalType": "address",
                            "name": "user_address",
                            "type": "address"
                        },
                        {
                            "internalType": "string",
                            "name": "first_name",
                            "type": "string"
                        },
                        {
                            "internalType": "string",
                            "name": "last_name",
                            "type": "string"
                        },
                        {
                            "internalType": "string",
                            "name": "email",
                            "type": "string"
                        },
                        {
                            "internalType": "uint256",
                            "name": "date_of_birth",
                            "type": "uint256"
                        },
                        {
                            "internalType": "string",
                            "name": "gender",
                            "type": "string"
                        }
                    ],
                    "internalType": "struct DataTypes.User",
                    "name": "newUser",
                    "type": "tuple"
                }
            ],
            "name": "addUser",
            "outputs": [],
            "stateMutability": "nonpayable",
            "type": "function"
        },
        {
            "inputs": [],
            "name": "buyCreditsFromCart",
            "outputs": [
                {
                    "internalType": "bool",
                    "name": "",
                    "type": "bool"
                }
            ],
            "stateMutability": "payable",
            "type": "function"
        },
        {
            "inputs": [
                {
                    "internalType": "uint256",
                    "name": "numerator",
                    "type": "uint256"
                },
                {
                    "internalType": "uint256",
                    "name": "denominator",
                    "type": "uint256"
                }
            ],
            "name": "ceil",
            "outputs": [
                {
                    "internalType": "uint256",
                    "name": "",
                    "type": "uint256"
                }
            ],
            "stateMutability": "pure",
            "type": "function"
        },
        {
            "inputs": [
                {
                    "components": [
                        {
                            "internalType": "uint256",
                            "name": "id",
                            "type": "uint256"
                        },
                        {
                            "internalType": "string",
                            "name": "name",
                            "type": "string"
                        },
                        {
                            "internalType": "string",
                            "name": "description",
                            "type": "string"
                        },
                        {
                            "internalType": "string",
                            "name": "status",
                            "type": "string"
                        },
                        {
                            "internalType": "string",
                            "name": "creditType",
                            "type": "string"
                        },
                        {
                            "internalType": "uint256",
                            "name": "creditQuantity",
                            "type": "uint256"
                        }
                    ],
                    "internalType": "struct DataTypes.EditProjectType",
                    "name": "args",
                    "type": "tuple"
                }
            ],
            "name": "editProject",
            "outputs": [
                {
                    "internalType": "bool",
                    "name": "",
                    "type": "bool"
                }
            ],
            "stateMutability": "nonpayable",
            "type": "function"
        },
        {
            "inputs": [
                {
                    "internalType": "uint256",
                    "name": "id",
                    "type": "uint256"
                },
                {
                    "internalType": "string",
                    "name": "name",
                    "type": "string"
                },
                {
                    "internalType": "string",
                    "name": "desc",
                    "type": "string"
                },
                {
                    "internalType": "string",
                    "name": "status",
                    "type": "string"
                }
            ],
            "name": "editProjectFromList",
            "outputs": [
                {
                    "internalType": "bool",
                    "name": "",
                    "type": "bool"
                }
            ],
            "stateMutability": "nonpayable",
            "type": "function"
        },
        {
            "inputs": [
                {
                    "internalType": "uint256",
                    "name": "fromIndex",
                    "type": "uint256"
                }
            ],
            "name": "fetchCart",
            "outputs": [
                {
                    "components": [
                        {
                            "internalType": "string",
                            "name": "creditType",
                            "type": "string"
                        },
                        {
                            "internalType": "uint256",
                            "name": "creditQuantityInCart",
                            "type": "uint256"
                        },
                        {
                            "internalType": "bool",
                            "name": "isCartEmpty",
                            "type": "bool"
                        }
                    ],
                    "internalType": "struct DataTypes.CartDetails[10]",
                    "name": "",
                    "type": "tuple[10]"
                }
            ],
            "stateMutability": "view",
            "type": "function"
        },
        {
            "inputs": [
                {
                    "components": [
                        {
                            "internalType": "uint256",
                            "name": "from",
                            "type": "uint256"
                        },
                        {
                            "internalType": "uint256",
                            "name": "to",
                            "type": "uint256"
                        }
                    ],
                    "internalType": "struct DataTypes.FetchEmissionsType",
                    "name": "args",
                    "type": "tuple"
                }
            ],
            "name": "fetchEmissions",
            "outputs": [
                {
                    "components": [
                        {
                            "internalType": "uint256",
                            "name": "date",
                            "type": "uint256"
                        },
                        {
                            "components": [
                                {
                                    "internalType": "string",
                                    "name": "category",
                                    "type": "string"
                                },
                                {
                                    "internalType": "string",
                                    "name": "factor_name",
                                    "type": "string"
                                },
                                {
                                    "internalType": "string",
                                    "name": "value",
                                    "type": "string"
                                },
                                {
                                    "internalType": "string",
                                    "name": "value_type",
                                    "type": "string"
                                },
                                {
                                    "internalType": "uint256",
                                    "name": "emission_value",
                                    "type": "uint256"
                                }
                            ],
                            "internalType": "struct DataTypes.Emission[50]",
                            "name": "emission",
                            "type": "tuple[50]"
                        }
                    ],
                    "internalType": "struct DataTypes.DateEmission[10]",
                    "name": "",
                    "type": "tuple[10]"
                }
            ],
            "stateMutability": "view",
            "type": "function"
        },
        {
            "inputs": [
                {
                    "internalType": "uint256",
                    "name": "fromIndex",
                    "type": "uint256"
                }
            ],
            "name": "getPortfolio",
            "outputs": [
                {
                    "components": [
                        {
                            "internalType": "string",
                            "name": "creditType",
                            "type": "string"
                        },
                        {
                            "internalType": "uint256",
                            "name": "creditQuantityInPortfolio",
                            "type": "uint256"
                        },
                        {
                            "internalType": "uint256",
                            "name": "boughtAt",
                            "type": "uint256"
                        }
                    ],
                    "internalType": "struct DataTypes.CreditDetails[10]",
                    "name": "",
                    "type": "tuple[10]"
                }
            ],
            "stateMutability": "view",
            "type": "function"
        },
        {
            "inputs": [
                {
                    "internalType": "uint256",
                    "name": "pageNumber",
                    "type": "uint256"
                }
            ],
            "name": "getProjects",
            "outputs": [
                {
                    "components": [
                        {
                            "internalType": "uint256",
                            "name": "id",
                            "type": "uint256"
                        },
                        {
                            "internalType": "string",
                            "name": "name",
                            "type": "string"
                        },
                        {
                            "internalType": "address",
                            "name": "org_id",
                            "type": "address"
                        },
                        {
                            "internalType": "string",
                            "name": "description",
                            "type": "string"
                        },
                        {
                            "internalType": "string",
                            "name": "status",
                            "type": "string"
                        },
                        {
                            "internalType": "uint256",
                            "name": "creditQuantity",
                            "type": "uint256"
                        },
                        {
                            "internalType": "string",
                            "name": "creditType",
                            "type": "string"
                        }
                    ],
                    "internalType": "struct DataTypes.Project[10]",
                    "name": "",
                    "type": "tuple[10]"
                }
            ],
            "stateMutability": "view",
            "type": "function"
        },
        {
            "inputs": [],
            "name": "getTotalCreditCount",
            "outputs": [
                {
                    "internalType": "uint256",
                    "name": "",
                    "type": "uint256"
                }
            ],
            "stateMutability": "view",
            "type": "function"
        },
        {
            "inputs": [],
            "name": "getTotalEmissions",
            "outputs": [
                {
                    "internalType": "uint256",
                    "name": "",
                    "type": "uint256"
                }
            ],
            "stateMutability": "view",
            "type": "function"
        },
        {
            "inputs": [
                {
                    "internalType": "uint256",
                    "name": "fromIndex",
                    "type": "uint256"
                }
            ],
            "name": "getTransactionBy",
            "outputs": [
                {
                    "components": [
                        {
                            "internalType": "uint256",
                            "name": "id",
                            "type": "uint256"
                        },
                        {
                            "internalType": "address",
                            "name": "org_id",
                            "type": "address"
                        },
                        {
                            "internalType": "address",
                            "name": "user_id",
                            "type": "address"
                        },
                        {
                            "internalType": "uint256",
                            "name": "project_id",
                            "type": "uint256"
                        },
                        {
                            "internalType": "uint256",
                            "name": "count",
                            "type": "uint256"
                        },
                        {
                            "internalType": "uint256",
                            "name": "boughtAt",
                            "type": "uint256"
                        },
                        {
                            "internalType": "string",
                            "name": "creditType",
                            "type": "string"
                        }
                    ],
                    "internalType": "struct DataTypes.Transaction[10]",
                    "name": "",
                    "type": "tuple[10]"
                }
            ],
            "stateMutability": "view",
            "type": "function"
        },
        {
            "inputs": [],
            "name": "loginUser",
            "outputs": [
                {
                    "components": [
                        {
                            "internalType": "bool",
                            "name": "isOrg",
                            "type": "bool"
                        },
                        {
                            "components": [
                                {
                                    "internalType": "address",
                                    "name": "user_address",
                                    "type": "address"
                                },
                                {
                                    "internalType": "string",
                                    "name": "first_name",
                                    "type": "string"
                                },
                                {
                                    "internalType": "string",
                                    "name": "last_name",
                                    "type": "string"
                                },
                                {
                                    "internalType": "string",
                                    "name": "email",
                                    "type": "string"
                                },
                                {
                                    "internalType": "uint256",
                                    "name": "date_of_birth",
                                    "type": "uint256"
                                },
                                {
                                    "internalType": "string",
                                    "name": "gender",
                                    "type": "string"
                                }
                            ],
                            "internalType": "struct DataTypes.User",
                            "name": "user",
                            "type": "tuple"
                        },
                        {
                            "components": [
                                {
                                    "internalType": "string",
                                    "name": "name",
                                    "type": "string"
                                },
                                {
                                    "internalType": "address",
                                    "name": "id",
                                    "type": "address"
                                },
                                {
                                    "internalType": "string",
                                    "name": "email",
                                    "type": "string"
                                }
                            ],
                            "internalType": "struct DataTypes.Organization",
                            "name": "org",
                            "type": "tuple"
                        }
                    ],
                    "internalType": "struct DataTypes.LoginReturnType",
                    "name": "",
                    "type": "tuple"
                }
            ],
            "stateMutability": "view",
            "type": "function"
        },
        {
            "inputs": [
                {
                    "components": [
                        {
                            "internalType": "uint256",
                            "name": "projectId",
                            "type": "uint256"
                        }
                    ],
                    "internalType": "struct DataTypes.MakeCartEmptyType",
                    "name": "args",
                    "type": "tuple"
                }
            ],
            "name": "makeCartEmpty",
            "outputs": [
                {
                    "internalType": "bool",
                    "name": "",
                    "type": "bool"
                }
            ],
            "stateMutability": "nonpayable",
            "type": "function"
        },
        {
            "inputs": [
                {
                    "internalType": "uint256",
                    "name": "projectId",
                    "type": "uint256"
                }
            ],
            "name": "makeUserCartEmpty",
            "outputs": [
                {
                    "internalType": "bool",
                    "name": "",
                    "type": "bool"
                }
            ],
            "stateMutability": "nonpayable",
            "type": "function"
        },
        {
            "inputs": [],
            "name": "owner",
            "outputs": [
                {
                    "internalType": "address",
                    "name": "",
                    "type": "address"
                }
            ],
            "stateMutability": "view",
            "type": "function"
        },
        {
            "inputs": [
                {
                    "components": [
                        {
                            "internalType": "string",
                            "name": "name",
                            "type": "string"
                        },
                        {
                            "internalType": "string",
                            "name": "email",
                            "type": "string"
                        }
                    ],
                    "internalType": "struct DataTypes.RegisterOrgType",
                    "name": "args",
                    "type": "tuple"
                }
            ],
            "name": "registerOrganization",
            "outputs": [
                {
                    "internalType": "bool",
                    "name": "",
                    "type": "bool"
                }
            ],
            "stateMutability": "nonpayable",
            "type": "function"
        },
        {
            "inputs": [
                {
                    "components": [
                        {
                            "internalType": "string",
                            "name": "first_name",
                            "type": "string"
                        },
                        {
                            "internalType": "string",
                            "name": "last_name",
                            "type": "string"
                        },
                        {
                            "internalType": "string",
                            "name": "email",
                            "type": "string"
                        },
                        {
                            "internalType": "uint256",
                            "name": "date_of_birth",
                            "type": "uint256"
                        },
                        {
                            "internalType": "string",
                            "name": "gender",
                            "type": "string"
                        }
                    ],
                    "internalType": "struct DataTypes.RegisterUserType",
                    "name": "args",
                    "type": "tuple"
                }
            ],
            "name": "registerUser",
            "outputs": [
                {
                    "internalType": "bool",
                    "name": "",
                    "type": "bool"
                }
            ],
            "stateMutability": "nonpayable",
            "type": "function"
        },
        {
            "inputs": [],
            "name": "transferCredits",
            "outputs": [
                {
                    "internalType": "bool",
                    "name": "",
                    "type": "bool"
                }
            ],
            "stateMutability": "nonpayable",
            "type": "function"
        }
    ],
    "bytecode": "0x60a0604052348015600f57600080fd5b50336080526080516150d161002f600039600061039801526150d16000f3fe6080604052600436106101815760003560e01c806381980d3d116100d1578063c11111221161008a578063ca25697311610064578063ca25697314610494578063eaebefa8146104e3578063f6b9776b14610503578063fe1018721461053057600080fd5b8063c111112214610434578063c4b3c1dd14610454578063c8888b1a1461047457600080fd5b806381980d3d146103465780638587be6e146103665780638da5cb5b14610386578063a19ed686146103d2578063af5ecaf4146103f4578063b0d88ad01461041457600080fd5b80633705a6841161013e5780636ba09c5c116101185780636ba09c5c146102e75780636d9d7204146102fc578063794c05941461031157806379b8f9b71461033e57600080fd5b80633705a684146102785780634b6478911461029a57806357d0f357146102c757600080fd5b806309924b9f1461018657806309fd1032146101bb578063117c483f146101de57806320628b48146101fe578063215d1eea1461022b57806328d119ef1461024b575b600080fd5b34801561019257600080fd5b506101a66101a1366004613dd1565b610550565b60405190151581526020015b60405180910390f35b3480156101c757600080fd5b506101d0610a1f565b6040519081526020016101b2565b3480156101ea57600080fd5b506101a66101f9366004613eb3565b610b81565b34801561020a57600080fd5b5061021e610219366004613fa2565b610e9b565b6040516101b2919061400b565b34801561023757600080fd5b506101a66102463660046140e0565b6112bf565b34801561025757600080fd5b5061026b610266366004613fa2565b61137b565b6040516101b29190614171565b34801561028457600080fd5b506102986102933660046141f1565b61159e565b005b3480156102a657600080fd5b506102ba6102b5366004614314565b611694565b6040516101b29190614330565b3480156102d357600080fd5b506102986102e2366004614428565b611a43565b3480156102f357600080fd5b506101a6611ae6565b34801561030857600080fd5b506101d0611ed0565b34801561031d57600080fd5b5061033161032c366004613fa2565b61202a565b6040516101b291906144df565b6101a6612246565b34801561035257600080fd5b506101a6610361366004614541565b61256a565b34801561037257600080fd5b506101d061038136600461464a565b612686565b34801561039257600080fd5b506103ba7f000000000000000000000000000000000000000000000000000000000000000081565b6040516001600160a01b0390911681526020016101b2565b3480156103de57600080fd5b506103e76126b0565b6040516101b291906146ac565b34801561040057600080fd5b506101a661040f366004614314565b612b93565b34801561042057600080fd5b506101a661042f36600461488e565b612e70565b34801561044057600080fd5b506101a661044f366004614904565b612ec0565b34801561046057600080fd5b506101a661046f36600461495a565b6130ed565b34801561048057600080fd5b506101a661048f3660046149a8565b61320e565b3480156104a057600080fd5b506101a66104af366004613fa2565b336000908152600560209081526040808320938352929052908120600180820192909255600201805460ff19168217905590565b3480156104ef57600080fd5b506101a66104fe3660046149e9565b613287565b34801561050f57600080fd5b5061052361051e366004613fa2565b613434565b6040516101b29190614aaa565b34801561053c57600080fd5b506101a661054b366004614b42565b61375e565b80515160009081036105a95760405162461bcd60e51b815260206004820152601a60248201527f4669727374204e616d652063616e6e6f7420626520656d70747900000000000060448201526064015b60405180910390fd5b8160200151516000036105fe5760405162461bcd60e51b815260206004820152601960248201527f4c617374204e616d652063616e6e6f7420626520656d7074790000000000000060448201526064016105a0565b81604001515160000361064b5760405162461bcd60e51b8152602060048201526015602482015274456d61696c2063616e6e6f7420626520656d70747960581b60448201526064016105a0565b8160800151516000036106995760405162461bcd60e51b815260206004820152601660248201527547656e6465722063616e6e6f7420626520656d70747960501b60448201526064016105a0565b81606001516000036106e35760405162461bcd60e51b8152602060048201526013602482015272444f422063616e6e6f7420626520656d70747960681b60448201526064016105a0565b336000908152600160208181526040808420815160c0810190925280546001600160a01b03168252928301805491939284019161071f90614bc3565b80601f016020809104026020016040519081016040528092919081815260200182805461074b90614bc3565b80156107985780601f1061076d57610100808354040283529160200191610798565b820191906000526020600020905b81548152906001019060200180831161077b57829003601f168201915b505050505081526020016002820180546107b190614bc3565b80601f01602080910402602001604051908101604052809291908181526020018280546107dd90614bc3565b801561082a5780601f106107ff5761010080835404028352916020019161082a565b820191906000526020600020905b81548152906001019060200180831161080d57829003601f168201915b5050505050815260200160038201805461084390614bc3565b80601f016020809104026020016040519081016040528092919081815260200182805461086f90614bc3565b80156108bc5780601f10610891576101008083540402835291602001916108bc565b820191906000526020600020905b81548152906001019060200180831161089f57829003601f168201915b50505050508152602001600482015481526020016005820180546108df90614bc3565b80601f016020809104026020016040519081016040528092919081815260200182805461090b90614bc3565b80156109585780601f1061092d57610100808354040283529160200191610958565b820191906000526020600020905b81548152906001019060200180831161093b57829003601f168201915b505050919092525050336000908152600160208190526040909120018054929350916109849150614bc3565b1590506109d35760405162461bcd60e51b815260206004820152601860248201527f5573657220616c726561647920726567697374657265642e000000000000000060448201526064016105a0565b825160208083019190915283015160408083019190915283015160608083019190915283015160808083019190915283015160a0820152338152610a168161159e565b50600192915050565b3360008181526001602081905260408220018054919291610a3f90614bc3565b9050600003610a605760405162461bcd60e51b81526004016105a090614bf7565b33600090815260026020526040812054815b81811015610b7857336000908152600260205260408120805483908110610a9b57610a9b614c3b565b6000918252602080832090910154338352828252604080842082855290925290822054909250905b81811015610b6a57336000908152602081815260408083208684529091529020805482908110610af557610af5614c3b565b90600052602060002090600502016000018054610b1190614bc3565b159050610b6257336000908152602081815260408083208684529091529020805482908110610b4257610b42614c3b565b90600052602060002090600502016004015486610b5f9190614c67565b95505b600101610ac3565b508260010192505050610a72565b50909250505090565b3360008181526007602052604081208054919291610b9e90614bc3565b9050600003610bbf5760405162461bcd60e51b81526004016105a090614c7a565b825160009081526008602052604090206001018054610bdd90614bc3565b9050600003610c275760405162461bcd60e51b8152602060048201526016602482015275283937b532b1ba103237b2b9b713ba1032bc34b9ba1760511b60448201526064016105a0565b82516000908152600860205260409020600201546001600160a01b03163314610c8b5760405162461bcd60e51b8152602060048201526016602482015275283937b532b1ba103237b2b9b713ba1032bc34b9ba1760511b60448201526064016105a0565b826020015151600003610cb05760405162461bcd60e51b81526004016105a090614cc6565b6040516541435449564560d01b6020820152602601604051602081830303815290604052805190602001208360600151604051602001610cf09190614cf4565b604051602081830303815290604052805190602001201480610d67575060405167494e41435449564560c01b6020820152602801604051602081830303815290604052805190602001208360600151604051602001610d4f9190614cf4565b60405160208183030381529060405280519060200120145b610da85760405162461bcd60e51b815260206004820152601260248201527129ba30ba3ab99034b99034b73b30b634b21760711b60448201526064016105a0565b826040015151600003610dfd5760405162461bcd60e51b815260206004820152601c60248201527f4465736372697074696f6e2063616e6e6f7420626520656d7074792e0000000060448201526064016105a0565b826080015151600003610e525760405162461bcd60e51b815260206004820152601d60248201527f4372656469742054797065206d7573742062652070726f76696465642e00000060448201526064016105a0565b8260a00151600003610e765760405162461bcd60e51b81526004016105a090614d10565b610e9283600001518460200151856040015186606001516112bf565b91505b50919050565b610ea36139ad565b336000818152600160208190526040909120018054610ec190614bc3565b9050600003610ee25760405162461bcd60e51b81526004016105a090614bf7565b82600003610f325760405162461bcd60e51b815260206004820152601860248201527f50616765206e756d6265722063616e6e6f7420626520302e000000000000000060448201526064016105a0565b600954610f4090600a612686565b610f4b906001614c67565b8310610f8c5760405162461bcd60e51b815260206004820152601060248201526f4e6f206d6f72652070726f6a6563747360801b60448201526064016105a0565b610f946139ad565b6000610fa1600186614d45565b610fac90600a614d58565b90506000610fbb82600a614c67565b600954909150808210610fd657610fd3600182614d45565b91505b6000835b8381116112b2576008600060098381548110610ff857610ff8614c3b565b906000526020600020015481526020019081526020016000206040518060e00160405290816000820154815260200160018201805461103690614bc3565b80601f016020809104026020016040519081016040528092919081815260200182805461106290614bc3565b80156110af5780601f10611084576101008083540402835291602001916110af565b820191906000526020600020905b81548152906001019060200180831161109257829003601f168201915b505050918352505060028201546001600160a01b031660208201526003820180546040909201916110df90614bc3565b80601f016020809104026020016040519081016040528092919081815260200182805461110b90614bc3565b80156111585780601f1061112d57610100808354040283529160200191611158565b820191906000526020600020905b81548152906001019060200180831161113b57829003601f168201915b5050505050815260200160048201805461117190614bc3565b80601f016020809104026020016040519081016040528092919081815260200182805461119d90614bc3565b80156111ea5780601f106111bf576101008083540402835291602001916111ea565b820191906000526020600020905b8154815290600101906020018083116111cd57829003601f168201915b505050505081526020016005820154815260200160068201805461120d90614bc3565b80601f016020809104026020016040519081016040528092919081815260200182805461123990614bc3565b80156112865780601f1061125b57610100808354040283529160200191611286565b820191906000526020600020905b81548152906001019060200180831161126957829003601f168201915b5050505050815250508683600a81106112a1576112a1614c3b565b602002015260019182019101610fda565b5093979650505050505050565b60008481526008602052604081206001016112da8582614dc0565b5060008581526008602052604090206003016112f68482614dc0565b5060008581526008602052604090206004016113128382614dc0565b50600085815260086020526040908190208054600282015492517f8d5e44cb2c811537181ca6bcd7da6cc3a3643a8d17d8ce94cab63eaf0f5669509361136793600101916001600160a01b0390911690614e7f565b60405180910390a15060015b949350505050565b6113836139db565b3360008181526001602081905260409091200180546113a190614bc3565b90506000036113c25760405162461bcd60e51b81526004016105a090614bf7565b336000908152600660205260409020546113dd816001614c67565b84106113fb5760405162461bcd60e51b81526004016105a090614f25565b6114036139db565b81600003611414579250610e959050565b6000851561142c57611427600187614d45565b611437565b611437600184614d45565b905060005b600a8110801561144a575060015b801561145557508382105b15611593573360009081526005602090815260408083206006909252822080549192918590811061148857611488614c3b565b906000526020600020015481526020019081526020016000206040518060600160405290816000820180546114bc90614bc3565b80601f01602080910402602001604051908101604052809291908181526020018280546114e890614bc3565b80156115355780601f1061150a57610100808354040283529160200191611535565b820191906000526020600020905b81548152906001019060200180831161151857829003601f168201915b50505091835250506001820154602082015260029091015460ff1615156040909101528382600a811061156a5761156a614c3b565b60200201528115611593578161157f81614f4f565b9250508061158c90614f66565b905061143c565b509095945050505050565b80516001600160a01b039081166000908152600160208181526040909220845181546001600160a01b0319169416939093178355908301518392918201906115e69082614dc0565b50604082015160028201906115fb9082614dc0565b50606082015160038201906116109082614dc0565b506080820151600482015560a0820151600582019061162f9082614dc0565b5050815160208084015160408086015190517f48cac28ad4dc618e15f4c2dd5e97751182f166de97b25618318b2112aa951a2f955061166e9301614f7f565b60408051601f19818403018152908290526116899291614fae565b60405180910390a150565b61169c613a27565b3360008181526001602081905260409091200180546116ba90614bc3565b90506000036116db5760405162461bcd60e51b81526004016105a090614bf7565b6116e3613a27565b83516305265c00906000905b86602001518111611a38573360009081526020818152604080832084845290915290205415611a2757611720613a55565b81815233600090815260208181526040808320858452909152812054905b818110156119fe5733600090815260208181526040808320878452909152902080548290811061177057611770614c3b565b90600052602060002090600502016040518060a001604052908160008201805461179990614bc3565b80601f01602080910402602001604051908101604052809291908181526020018280546117c590614bc3565b80156118125780601f106117e757610100808354040283529160200191611812565b820191906000526020600020905b8154815290600101906020018083116117f557829003601f168201915b5050505050815260200160018201805461182b90614bc3565b80601f016020809104026020016040519081016040528092919081815260200182805461185790614bc3565b80156118a45780601f10611879576101008083540402835291602001916118a4565b820191906000526020600020905b81548152906001019060200180831161188757829003601f168201915b505050505081526020016002820180546118bd90614bc3565b80601f01602080910402602001604051908101604052809291908181526020018280546118e990614bc3565b80156119365780601f1061190b57610100808354040283529160200191611936565b820191906000526020600020905b81548152906001019060200180831161191957829003601f168201915b5050505050815260200160038201805461194f90614bc3565b80601f016020809104026020016040519081016040528092919081815260200182805461197b90614bc3565b80156119c85780601f1061199d576101008083540402835291602001916119c8565b820191906000526020600020905b8154815290600101906020018083116119ab57829003601f168201915b50505050508152602001600482015481525050836020015182603281106119f1576119f1614c3b565b602002015260010161173e565b50818685600a8110611a1257611a12614c3b565b6020020152611a22846001614c67565b935050505b611a318382614c67565b90506116ef565b509195945050505050565b6020808201516001600160a01b0316600090815260079091526040902081518291908190611a719082614dc0565b5060208201516001820180546001600160a01b0319166001600160a01b0390921691909117905560408201516002820190611aac9082614dc0565b505050602081015181516040517f783e607e94efcb9adce3489c806008ddc378d784ae22a1f801458720054325a292611689929091614fae565b33600090815260066020526040812054815b81811015611ec757336000908152600660205260408120805483908110611b2157611b21614c3b565b60009182526020808320919091015433835260058083526040808520838652845280852060028101805460ff19166001908117909155015460089094529093209092015491925090611b74908290614d45565b600083815260086020908152604080832060059081019490945533835292815282822085835290529081208054611baa90614bc3565b80601f0160208091040260200160405190810160405280929190818152602001828054611bd690614bc3565b8015611c235780601f10611bf857610100808354040283529160200191611c23565b820191906000526020600020905b815481529060010190602001808311611c0657829003601f168201915b50503360009081526003602052604090819020905194955093611c4b93508592509050614cf4565b9081526040519081900360200190208054611c6590614bc3565b9050600003611c995733600090815260046020908152604082208054600181018255908352912001611c978282614dc0565b505b336000908152600360205260408082209051849190611cb9908590614cf4565b908152602001604051809103902060010154611cd59190614c67565b9050600081611ce5856064614d58565b33600090815260036020526040908190209051611d03908790614cf4565b9081526040805191829003602090810183206002015433600090815260039092529190209091611d34908890614cf4565b908152602001604051809103902060010154611d509190614d58565b611d5a9190614c67565b611d649190614fd2565b336000908152600360205260409081902090519192508491611d87908390614cf4565b90815260405190819003602001902090611da19082614dc0565b5033600090815260036020526040908190209051839190611dc3908690614cf4565b908152604080516020928190038301812060010193909355336000908152600390925290208291611df5908690614cf4565b9081526040805160209281900383019020600290810193909355600b805460018082019092557f0175b7a638427703f0dbe7bb9bbf987a2551717b34e79f33b5b1008d1fa01db981018190556000818152600a8086528482208381558c8352600887529482208701549183905290945290820180546001600160a01b039094166001600160a01b0319948516179055928101805433931692909217909155600381018790556004810186905560646005820155600601611eb58582614dc0565b50866001019650505050505050611af8565b50600191505090565b3360008181526001602081905260408220018054919291611ef090614bc3565b9050600003611f115760405162461bcd60e51b81526004016105a090614bf7565b33600090815260046020526040812054815b81811015610b7857336000908152600460205260408120805483908110611f4c57611f4c614c3b565b906000526020600020018054611f6190614bc3565b80601f0160208091040260200160405190810160405280929190818152602001828054611f8d90614bc3565b8015611fda5780601f10611faf57610100808354040283529160200191611fda565b820191906000526020600020905b815481529060010190602001808311611fbd57829003601f168201915b5050336000908152600360205260409081902090519495509361200293508592509050614cf4565b9081526020016040518091039020600101548461201f9190614c67565b935050600101611f23565b612032613a74565b33600081815260016020819052604090912001805461205090614bc3565b90506000036120715760405162461bcd60e51b81526004016105a090614bf7565b3360009081526004602052604090205461208c816001614c67565b84106120aa5760405162461bcd60e51b81526004016105a090614f25565b6120b2613a74565b816000036120c3579250610e959050565b600085156120db576120d6600187614d45565b6120e6565b6120e6600184614d45565b905060005b600a811080156120f9575060015b801561210457508382105b1561159357336000908152600360209081526040808320600490925290912080548490811061213557612135614c3b565b9060005260206000200160405161214c9190614ff4565b908152602001604051809103902060405180606001604052908160008201805461217590614bc3565b80601f01602080910402602001604051908101604052809291908181526020018280546121a190614bc3565b80156121ee5780601f106121c3576101008083540402835291602001916121ee565b820191906000526020600020905b8154815290600101906020018083116121d157829003601f168201915b50505050508152602001600182015481526020016002820154815250508382600a811061221d5761221d614c3b565b60200201528115611593578161223281614f4f565b9250508061223f90614f66565b90506120eb565b336000818152600160208190526040822001805491929161226690614bc3565b90506000036122875760405162461bcd60e51b81526004016105a090614bf7565b336000908152600660205260408120546001908290815b8181101561236b573360009081526006602052604081208054839081106122c7576122c7614c3b565b60009182526020808320909101543383526005825260408084208285529092529120600101549091501561232f5760019550853360009081526005602090815260408083208584529091529020600101546123229190614d58565b61232c9085614c67565b93505b33600090815260056020818152604080842085855282528084206001015460089092529092200154101561236257600094505b5060010161229e565b50836001146123ad5760405162461bcd60e51b815260206004820152600e60248201526d21b0b93a1034b99032b6b83a3c9760911b60448201526064016105a0565b826001146123fd5760405162461bcd60e51b815260206004820152601760248201527f43616e6e6f7420706c61636520627579206f726465722e00000000000000000060448201526064016105a0565b34821461243d5760405162461bcd60e51b815260206004820152600e60248201526d125b9d985b1a5908185b5bdd5b9d60921b60448201526064016105a0565b612445611ae6565b5060005b8181101561255d5733600090815260066020526040812080548390811061247257612472614c3b565b9060005260206000200154905060006008600060066000336001600160a01b03166001600160a01b0316815260200190815260200160002085815481106124bb576124bb614c3b565b600091825260208083209091015483528201929092526040018120600201546001600160a01b031691506124ed600190565b3360009081526005602090815260408083208784529091529020600101546125159190614d58565b6040519091506001600160a01b0383169082156108fc029083906000818181858888f1935050505015801561254e573d6000803e3d6000fd5b50836001019350505050612449565b5060019550505050505090565b6009805460018181019092557f6e1540171b6c0c960b71a7020d9f60077f6af931a8bbf590da0223dacf75c7af0183905560008381526008602090815260408220845181559084015191928492908201906125c59082614dc0565b5060408201516002820180546001600160a01b0319166001600160a01b03909216919091179055606082015160038201906126009082614dc0565b50608082015160048201906126159082614dc0565b5060a0820151600582015560c082015160068201906126349082614dc0565b50508251602084015160408086015190517f0c37be42d09c868de3d7b2154026972d847472b2d254f8f2f6a8f1be3a450e6a94506126749392919061506a565b60405180910390a15060015b92915050565b60008160016126958286614c67565b61269f9190614d45565b6126a99190614fd2565b9392505050565b6126b8613abe565b3360008181526001602081905260409091200180546126d690614bc3565b151590508061270857506001600160a01b0381166000908152600760205260409020805461270390614bc3565b151590505b6127545760405162461bcd60e51b815260206004820181905260248201527f496e76616c6964204c6f67696e212120506c656173652072656769737465722e60448201526064016105a0565b61275c613abe565b33600090815260016020819052604090912001805461277a90614bc3565b159050612a0d5733600090815260016020818152604092839020835160c0810190945280546001600160a01b031684529182018054918401916127bc90614bc3565b80601f01602080910402602001604051908101604052809291908181526020018280546127e890614bc3565b80156128355780601f1061280a57610100808354040283529160200191612835565b820191906000526020600020905b81548152906001019060200180831161281857829003601f168201915b5050505050815260200160028201805461284e90614bc3565b80601f016020809104026020016040519081016040528092919081815260200182805461287a90614bc3565b80156128c75780601f1061289c576101008083540402835291602001916128c7565b820191906000526020600020905b8154815290600101906020018083116128aa57829003601f168201915b505050505081526020016003820180546128e090614bc3565b80601f016020809104026020016040519081016040528092919081815260200182805461290c90614bc3565b80156129595780601f1061292e57610100808354040283529160200191612959565b820191906000526020600020905b81548152906001019060200180831161293c57829003601f168201915b505050505081526020016004820154815260200160058201805461297c90614bc3565b80601f01602080910402602001604051908101604052809291908181526020018280546129a890614bc3565b80156129f55780601f106129ca576101008083540402835291602001916129f5565b820191906000526020600020905b8154815290600101906020018083116129d857829003601f168201915b50505091909252505050602082015260008152612b8d565b3360009081526007602052604090208054612a2790614bc3565b159050612b8d573360009081526007602052604090819020815160608101909252805482908290612a5790614bc3565b80601f0160208091040260200160405190810160405280929190818152602001828054612a8390614bc3565b8015612ad05780601f10612aa557610100808354040283529160200191612ad0565b820191906000526020600020905b815481529060010190602001808311612ab357829003601f168201915b505050918352505060018201546001600160a01b03166020820152600282018054604090920191612b0090614bc3565b80601f0160208091040260200160405190810160405280929190818152602001828054612b2c90614bc3565b8015612b795780601f10612b4e57610100808354040283529160200191612b79565b820191906000526020600020905b815481529060010190602001808311612b5c57829003601f168201915b505050919092525050506040820152600181525b91505090565b3360008181526001602081905260408220018054919291612bb390614bc3565b9050600003612bd45760405162461bcd60e51b81526004016105a090614bf7565b8260200151600003612bf85760405162461bcd60e51b81526004016105a090614d10565b825160009081526008602052604090206001018054612c1690614bc3565b9050600003612c595760405162461bcd60e51b815260206004820152600f60248201526e125b9d985b1a5908141c9bda9958dd608a1b60448201526064016105a0565b6040516541435449564560d01b602082015260260160408051601f1981840301815282825280516020918201208651600090815260088352929092209192612ca5926004019101614ff4565b6040516020818303038152906040528051906020012014612cfa5760405162461bcd60e51b815260206004820152600f60248201526e125b9d985b1a5908141c9bda9958dd608a1b60448201526064016105a0565b825160009081526008602052604081206006018054612d1890614bc3565b80601f0160208091040260200160405190810160405280929190818152602001828054612d4490614bc3565b8015612d915780601f10612d6657610100808354040283529160200191612d91565b820191906000526020600020905b815481529060010190602001808311612d7457829003601f168201915b50503360009081526005602090815260408083208b5184529091528120600201549495509360ff169250612de69150505733600090815260056020908152604080832088518452909152902060010154612de9565b60005b9050808560200151612dfb9190614c67565b8551600090815260086020526040902060050154612e1a906001614c67565b11612e5d5760405162461bcd60e51b815260206004820152601360248201527221b0b73737ba1030b232103a379031b0b93a1760691b60448201526064016105a0565b612e6785836130ed565b95945050505050565b3360008181526001602081905260408220018054919291612e9090614bc3565b9050600003612eb15760405162461bcd60e51b81526004016105a090614bf7565b610e9283600001518460200151335b6001600160a01b0381166000908152602081815260408083208684529091528120548103612f14576001600160a01b0382166000908152600260209081526040822080546001810182559083529120018490555b6001600160a01b038216600090815260208181526040808320878452909152812054906032905b818110156130e057858160328110612f5557612f55614c3b565b60200201515151156130d85782811061301c576001600160a01b0385166000908152602081815260408083208a84529091529020868260328110612f9b57612f9b614c3b565b6020908102919091015182546001810184556000938452919092208251600590920201908190612fcb9082614dc0565b5060208201516001820190612fe09082614dc0565b5060408201516002820190612ff59082614dc0565b506060820151600382019061300a9082614dc0565b506080820151816004015550506130d8565b85816032811061302e5761302e614c3b565b602090810291909101516001600160a01b038716600090815280835260408082208b83529093529190912080548390811061306b5761306b614c3b565b60009182526020909120825160059092020190819061308a9082614dc0565b506020820151600182019061309f9082614dc0565b50604082015160028201906130b49082614dc0565b50606082015160038201906130c99082614dc0565b50608082015181600401559050505b600101612f3b565b5060019695505050505050565b336000908152600560209081526040808320855184529091528120805461311390614bc3565b90506000036131435733600090815260066020908152604082208551815460018101835591845291909220909101555b3360009081526005602090815260408083208651845290915290206131688382614dc0565b503360009081526005602090815260408083208651845290915290206002015460ff166131995782602001516131c7565b6020808401513360009081526005835260408082208751835290935291909120600101546131c79190614c67565b33600081815260056020818152604080842089518552808352818520600190810197909755948452918152875183529290925220600201805460ff19169055905092915050565b336000818152600160208190526040822001805491929161322e90614bc3565b905060000361324f5760405162461bcd60e51b81526004016105a090614bf7565b8251336000908152600560209081526040808320938352929052908120600180820192909255600201805460ff191682179055610e92565b33600081815260076020526040812080549192916132a490614bc3565b90506000036132c55760405162461bcd60e51b81526004016105a090614c7a565b8251516000036132e75760405162461bcd60e51b81526004016105a090614cc6565b82602001515160000361333c5760405162461bcd60e51b815260206004820152601c60248201527f4465736372697074696f6e2063616e6e6f7420626520656d7074792e0000000060448201526064016105a0565b8260400151516000036133915760405162461bcd60e51b815260206004820152601d60248201527f4372656469742054797065206d7573742062652070726f76696465642e00000060448201526064016105a0565b82606001516000036133b55760405162461bcd60e51b81526004016105a090614d10565b6009546000906133c6906001614c67565b90506133d0613b46565b8451602080830191909152808601516060808401919091528383523360408085019190915280518082018252600681526541435449564560d01b9381019390935260808401929092529086015160c083015285015160a0820152612e67828261256a565b61343c613b8c565b33600081815260016020819052604090912001805461345a90614bc3565b151590508061348c57506001600160a01b0381166000908152600760205260409020805461348790614bc3565b151590505b6134d85760405162461bcd60e51b815260206004820181905260248201527f496e76616c6964204c6f67696e212120506c656173652072656769737465722e60448201526064016105a0565b600b546134e6906001614c67565b83106135045760405162461bcd60e51b81526004016105a090614f25565b600b5461350f613b8c565b81600003613520579250610e959050565b6000851561353857613533600187614d45565b613543565b613543600184614d45565b905060005b600a81108015613556575060015b801561356157508382105b1561159357336001600160a01b0316600a6000600b858154811061358757613587614c3b565b600091825260208083209091015483528201929092526040019020600201546001600160a01b031614806136015750336001600160a01b0316600a6000600b85815481106135d7576135d7614c3b565b600091825260208083209091015483528201929092526040019020600101546001600160a01b0316145b1561373a57600a6000600b848154811061361d5761361d614c3b565b600091825260208083209091015483528281019390935260409182019020815160e0810183528154815260018201546001600160a01b03908116948201949094526002820154909316918301919091526003810154606083015260048101546080830152600581015460a083015260068101805460c0840191906136a090614bc3565b80601f01602080910402602001604051908101604052809291908181526020018280546136cc90614bc3565b80156137195780601f106136ee57610100808354040283529160200191613719565b820191906000526020600020905b8154815290600101906020018083116136fc57829003601f168201915b5050505050815250508382600a811061373457613734614c3b565b60200201525b8115611593578161374a81614f4f565b9250508061375790614f66565b9050613548565b80515160009081036137825760405162461bcd60e51b81526004016105a090614cc6565b8160200151516000036137cf5760405162461bcd60e51b8152602060048201526015602482015274456d61696c2063616e6e6f7420626520656d70747960581b60448201526064016105a0565b336000908152600760205260408082208151606081019092528054829082906137f790614bc3565b80601f016020809104026020016040519081016040528092919081815260200182805461382390614bc3565b80156138705780601f1061384557610100808354040283529160200191613870565b820191906000526020600020905b81548152906001019060200180831161385357829003601f168201915b505050918352505060018201546001600160a01b031660208201526002820180546040909201916138a090614bc3565b80601f01602080910402602001604051908101604052809291908181526020018280546138cc90614bc3565b80156139195780601f106138ee57610100808354040283529160200191613919565b820191906000526020600020905b8154815290600101906020018083116138fc57829003601f168201915b5050509190925250503360009081526007602052604090208054929350916139419150614bc3565b1590506139905760405162461bcd60e51b815260206004820181905260248201527f4f7267616e697a6174696f6e20616c726561647920726567697374657265642e60448201526064016105a0565b8251815260208084015160408301523390820152610a1681611a43565b604051806101400160405280600a905b6139c5613b46565b8152602001906001900390816139bd5790505090565b604051806101400160405280600a905b613a11604051806060016040528060608152602001600081526020016000151581525090565b8152602001906001900390816139eb5790505090565b604051806101400160405280600a905b613a3f613a55565b815260200190600190039081613a375790505090565b604051806040016040528060008152602001613a6f613c04565b905290565b604051806101400160405280600a905b613aa860405180606001604052806060815260200160008152602001600081525090565b815260200190600190039081613a845790505090565b6040518060600160405280600015158152602001613b146040518060c0016040528060006001600160a01b0316815260200160608152602001606081526020016060815260200160008152602001606081525090565b8152602001613a6f60405180606001604052806060815260200160006001600160a01b03168152602001606081525090565b6040518060e00160405280600081526020016060815260200160006001600160a01b03168152602001606081526020016060815260200160008152602001606081525090565b604051806101400160405280600a905b613bee6040518060e001604052806000815260200160006001600160a01b0316815260200160006001600160a01b03168152602001600081526020016000815260200160008152602001606081525090565b815260200190600190039081613b9c5790505090565b6040518061064001604052806032905b613c466040518060a0016040528060608152602001606081526020016060815260200160608152602001600081525090565b815260200190600190039081613c145790505090565b634e487b7160e01b600052604160045260246000fd5b60405160a081016001600160401b0381118282101715613c9457613c94613c5c565b60405290565b60405160c081016001600160401b0381118282101715613c9457613c94613c5c565b604080519081016001600160401b0381118282101715613c9457613c94613c5c565b60405160e081016001600160401b0381118282101715613c9457613c94613c5c565b60405161064081016001600160401b0381118282101715613c9457613c94613c5c565b604051608081016001600160401b0381118282101715613c9457613c94613c5c565b600082601f830112613d5657600080fd5b81356001600160401b0380821115613d7057613d70613c5c565b604051601f8301601f19908116603f01168101908282118183101715613d9857613d98613c5c565b81604052838152866020858801011115613db157600080fd5b836020870160208301376000602085830101528094505050505092915050565b600060208284031215613de357600080fd5b81356001600160401b0380821115613dfa57600080fd5b9083019060a08286031215613e0e57600080fd5b613e16613c72565b823582811115613e2557600080fd5b613e3187828601613d45565b825250602083013582811115613e4657600080fd5b613e5287828601613d45565b602083015250604083013582811115613e6a57600080fd5b613e7687828601613d45565b60408301525060608301356060820152608083013582811115613e9857600080fd5b613ea487828601613d45565b60808301525095945050505050565b600060208284031215613ec557600080fd5b81356001600160401b0380821115613edc57600080fd5b9083019060c08286031215613ef057600080fd5b613ef8613c9a565b82358152602083013582811115613f0e57600080fd5b613f1a87828601613d45565b602083015250604083013582811115613f3257600080fd5b613f3e87828601613d45565b604083015250606083013582811115613f5657600080fd5b613f6287828601613d45565b606083015250608083013582811115613f7a57600080fd5b613f8687828601613d45565b60808301525060a083013560a082015280935050505092915050565b600060208284031215613fb457600080fd5b5035919050565b60005b83811015613fd6578181015183820152602001613fbe565b50506000910152565b60008151808452613ff7816020860160208601613fbb565b601f01601f19169290920160200192915050565b6020808252600090610160830183820185845b600a8110156140d457601f19878503018352815160e08151865286820151818888015261404d82880182613fdf565b6040848101516001600160a01b031690890152606080850151898303828b0152919350915061407c8382613fdf565b92505050608080830151878303828901526140978382613fdf565b9250505060a080830151818801525060c080830151925086820381880152506140c08183613fdf565b95505050918401919084019060010161401e565b50919695505050505050565b600080600080608085870312156140f657600080fd5b8435935060208501356001600160401b038082111561411457600080fd5b61412088838901613d45565b9450604087013591508082111561413657600080fd5b61414288838901613d45565b9350606087013591508082111561415857600080fd5b5061416587828801613d45565b91505092959194509250565b6020808252600090610160830183820185845b600a8110156140d457601f198785030183528151606081518187526141ab82880182613fdf565b83890151888a01526040938401511515939097019290925250509184019190840190600101614184565b80356001600160a01b03811681146141ec57600080fd5b919050565b60006020828403121561420357600080fd5b81356001600160401b038082111561421a57600080fd5b9083019060c0828603121561422e57600080fd5b614236613c9a565b61423f836141d5565b815260208301358281111561425357600080fd5b61425f87828601613d45565b60208301525060408301358281111561427757600080fd5b61428387828601613d45565b60408301525060608301358281111561429b57600080fd5b6142a787828601613d45565b6060830152506080830135608082015260a0830135828111156142c957600080fd5b6142d587828601613d45565b60a08301525095945050505050565b6000604082840312156142f657600080fd5b6142fe613cbc565b9050813581526020820135602082015292915050565b60006040828403121561432657600080fd5b6126a983836142e4565b602080825260009061016083018382018584805b600a81101561441b57878503601f1901845282518051865286015160408787018190526106808701818801855b603281101561440457603f198a8403018252845160a0815181865261439882870182613fdf565b9150508c8201518582038e8701526143b08282613fdf565b91505085820151858203878701526143c88282613fdf565b915050606080830151868303828801526143e28382613fdf565b60809485015197909401969096525050948b01949250908a0190600101614371565b509097505050938601935091850191600101614344565b5092979650505050505050565b60006020828403121561443a57600080fd5b81356001600160401b038082111561445157600080fd5b908301906060828603121561446557600080fd5b60405160608101818110838211171561448057614480613c5c565b60405282358281111561449257600080fd5b61449e87828601613d45565b8252506144ad602084016141d5565b60208201526040830135828111156144c457600080fd5b6144d087828601613d45565b60408301525095945050505050565b6020808252600090610160830183820185845b600a8110156140d457601f1987850301835281516060815181875261451982880182613fdf565b83890151888a01526040938401519390970192909252505091840191908401906001016144f2565b6000806040838503121561455457600080fd5b8235915060208301356001600160401b038082111561457257600080fd5b9084019060e0828703121561458657600080fd5b61458e613cde565b823581526020830135828111156145a457600080fd5b6145b088828601613d45565b6020830152506145c2604084016141d5565b60408201526060830135828111156145d957600080fd5b6145e588828601613d45565b6060830152506080830135828111156145fd57600080fd5b61460988828601613d45565b60808301525060a083013560a082015260c08301358281111561462b57600080fd5b61463788828601613d45565b60c0830152508093505050509250929050565b6000806040838503121561465d57600080fd5b50508035926020909101359150565b60008151606084526146816060850182613fdf565b905060018060a01b03602084015116602085015260408301518482036040860152612e678282613fdf565b60208082528251151582820152828101516060604084015280516001600160a01b031660808401529081015160c060a0840152600091906146f1610140850182613fdf565b90506040820151607f19808684030160c087015261470f8383613fdf565b925060608401519150808684030160e087015261472c8383613fdf565b9250608084015161010087015260a08401519350808684030161012087015250506147578183613fdf565b9150506040840151601f19848303016060850152612e67828261466c565b600082601f83011261478657600080fd5b61478e613d00565b806106408401858111156147a157600080fd5b845b818110156115935780356001600160401b03808211156147c35760008081fd5b9087019060a0828a0312156147d85760008081fd5b6147e0613c72565b8235828111156147f05760008081fd5b6147fc8b828601613d45565b825250602080840135838111156148135760008081fd5b61481f8c828701613d45565b8284015250604080850135848111156148385760008081fd5b6148448d828801613d45565b8285015250506060808501358481111561485e5760008081fd5b61486a8d828801613d45565b918401919091525060809384013593820193909352865250909301926020016147a3565b6000602082840312156148a057600080fd5b81356001600160401b03808211156148b757600080fd5b90830190604082860312156148cb57600080fd5b6148d3613cbc565b823581526020830135828111156148e957600080fd5b6148f587828601614775565b60208301525095945050505050565b60008060006060848603121561491957600080fd5b8335925060208401356001600160401b0381111561493657600080fd5b61494286828701614775565b925050614951604085016141d5565b90509250925092565b6000806060838503121561496d57600080fd5b61497784846142e4565b915060408301356001600160401b0381111561499257600080fd5b61499e85828601613d45565b9150509250929050565b6000602082840312156149ba57600080fd5b604051602081018181106001600160401b03821117156149dc576149dc613c5c565b6040529135825250919050565b6000602082840312156149fb57600080fd5b81356001600160401b0380821115614a1257600080fd5b9083019060808286031215614a2657600080fd5b614a2e613d23565b823582811115614a3d57600080fd5b614a4987828601613d45565b825250602083013582811115614a5e57600080fd5b614a6a87828601613d45565b602083015250604083013582811115614a8257600080fd5b614a8e87828601613d45565b6040830152506060830135606082015280935050505092915050565b6020808252600090610160830183820185845b600a8110156140d457868403601f19018352815180518552858101516001600160a01b039081168787015260408083015190911690860152606080820151908601526080808201519086015260a0808201519086015260c09081015160e091860182905290614b2e81870183613fdf565b955050509184019190840190600101614abd565b600060208284031215614b5457600080fd5b81356001600160401b0380821115614b6b57600080fd5b9083019060408286031215614b7f57600080fd5b614b87613cbc565b823582811115614b9657600080fd5b614ba287828601613d45565b825250602083013582811115614bb757600080fd5b6148f587828601613d45565b600181811c90821680614bd757607f821691505b602082108103610e9557634e487b7160e01b600052602260045260246000fd5b60208082526024908201527f5573657220646f65736e27742065786973742e20506c656173652072656769736040820152633a32b91760e11b606082015260800190565b634e487b7160e01b600052603260045260246000fd5b634e487b7160e01b600052601160045260246000fd5b8082018082111561268057612680614c51565b6020808252602c908201527f4f7267616e697a6174696f6e20646f65736e27742065786973742e20506c656160408201526b39b2903932b3b4b9ba32b91760a11b606082015260800190565b6020808252601490820152734e616d652063616e6e6f7420626520656d70747960601b604082015260600190565b60008251614d06818460208701613fbb565b9190910192915050565b6020808252818101527f5175616e74697479206d757374206265206d6f7265207468616e207a65726f2e604082015260600190565b8181038181111561268057612680614c51565b808202811582820484141761268057612680614c51565b601f821115614dbb576000816000526020600020601f850160051c81016020861015614d985750805b601f850160051c820191505b81811015614db757828155600101614da4565b5050505b505050565b81516001600160401b03811115614dd957614dd9613c5c565b614ded81614de78454614bc3565b84614d6f565b602080601f831160018114614e225760008415614e0a5750858301515b600019600386901b1c1916600185901b178555614db7565b600085815260208120601f198616915b82811015614e5157888601518255948401946001909101908401614e32565b5085821015614e6f5787850151600019600388901b60f8161c191681555b5050505050600190811b01905550565b838152600060206060602084015260008554614e9a81614bc3565b8060608701526080600180841660008114614ebc5760018114614ed857614f08565b60ff19851660808a0152608084151560051b8a01019550614f08565b8a600052602060002060005b85811015614eff5781548b8201860152908301908801614ee4565b8a016080019650505b505050506001600160a01b03861660408601525091506113739050565b60208082526010908201526f24b73b30b634b2103932b8bab2b9ba1760811b604082015260600190565b600081614f5e57614f5e614c51565b506000190190565b600060018201614f7857614f78614c51565b5060010190565b60008351614f91818460208801613fbb565b835190830190614fa5818360208801613fbb565b01949350505050565b6001600160a01b038316815260406020820181905260009061137390830184613fdf565b600082614fef57634e487b7160e01b600052601260045260246000fd5b500490565b600080835461500281614bc3565b6001828116801561501a576001811461502f5761505e565b60ff198416875282151583028701945061505e565b8760005260208060002060005b858110156150555781548a82015290840190820161503c565b50505082870194505b50929695505050505050565b8381526060602082015260006150836060830185613fdf565b905060018060a01b038316604083015294935050505056fea264697066735822122072327fe4602c4aa9ef45e2fbeae630bfb5882898b898b9a19b34e09756d188e264736f6c63430008190033",
    "linkReferences": {},
    "deployedLinkReferences": {}
}