{
  "_format": "hh-sol-artifact-1",
  "contractName": "Functionality",
  "sourceName": "contracts/Functionality.sol",
  "abi": [
    {
      "anonymous": false,
      "inputs": [
        {
          "indexed": false,
          "internalType": "address",
          "name": "userAddress",
          "type": "address"
        },
        {
          "indexed": false,
          "internalType": "string",
          "name": "username",
          "type": "string"
        }
      ],
      "name": "UserRegistered",
      "type": "event"
    },
    {
      "inputs": [
        {
          "components": [
            {
              "internalType": "uint256",
              "name": "date",
              "type": "uint256"
            },
            {
              "components": [
                {
                  "internalType": "string",
                  "name": "category",
                  "type": "string"
                },
                {
                  "internalType": "string",
                  "name": "factor_name",
                  "type": "string"
                },
                {
                  "internalType": "string",
                  "name": "value",
                  "type": "string"
                },
                {
                  "internalType": "string",
                  "name": "value_type",
                  "type": "string"
                },
                {
                  "internalType": "uint256",
                  "name": "emission_value",
                  "type": "uint256"
                }
              ],
              "internalType": "struct Data_Types.Emission[50]",
              "name": "emissions",
              "type": "tuple[50]"
            }
          ],
          "internalType": "struct Data_Types.AddEmissionType",
          "name": "args",
          "type": "tuple"
        }
      ],
      "name": "addEmission",
      "outputs": [
        {
          "internalType": "bool",
          "name": "",
          "type": "bool"
        }
      ],
      "stateMutability": "nonpayable",
      "type": "function"
    },
    {
      "inputs": [
        {
          "internalType": "uint256",
          "name": "date",
          "type": "uint256"
        },
        {
          "components": [
            {
              "internalType": "string",
              "name": "category",
              "type": "string"
            },
            {
              "internalType": "string",
              "name": "factor_name",
              "type": "string"
            },
            {
              "internalType": "string",
              "name": "value",
              "type": "string"
            },
            {
              "internalType": "string",
              "name": "value_type",
              "type": "string"
            },
            {
              "internalType": "uint256",
              "name": "emission_value",
              "type": "uint256"
            }
          ],
          "internalType": "struct Data_Types.Emission[50]",
          "name": "emissions",
          "type": "tuple[50]"
        },
        {
          "internalType": "address",
          "name": "sender",
          "type": "address"
        }
      ],
      "name": "addEmissionToList",
      "outputs": [
        {
          "internalType": "bool",
          "name": "",
          "type": "bool"
        }
      ],
      "stateMutability": "nonpayable",
      "type": "function"
    },
    {
      "inputs": [
        {
          "components": [
            {
              "internalType": "address",
              "name": "user_address",
              "type": "address"
            },
            {
              "internalType": "uint256",
              "name": "id",
              "type": "uint256"
            },
            {
              "internalType": "string",
              "name": "first_name",
              "type": "string"
            },
            {
              "internalType": "string",
              "name": "last_name",
              "type": "string"
            },
            {
              "internalType": "string",
              "name": "email",
              "type": "string"
            },
            {
              "internalType": "uint256",
              "name": "date_of_birth",
              "type": "uint256"
            },
            {
              "internalType": "string",
              "name": "gender",
              "type": "string"
            },
            {
              "internalType": "uint256[]",
              "name": "date_list",
              "type": "uint256[]"
            }
          ],
          "internalType": "struct Data_Types.User",
          "name": "newUser",
          "type": "tuple"
        }
      ],
      "name": "addUser",
      "outputs": [],
      "stateMutability": "nonpayable",
      "type": "function"
    },
    {
      "inputs": [
        {
          "components": [
            {
              "internalType": "uint256",
              "name": "from",
              "type": "uint256"
            },
            {
              "internalType": "uint256",
              "name": "to",
              "type": "uint256"
            }
          ],
          "internalType": "struct Data_Types.FetchEmissionsType",
          "name": "args",
          "type": "tuple"
        }
      ],
      "name": "fetchEmissions",
      "outputs": [
        {
          "components": [
            {
              "internalType": "uint256",
              "name": "date",
              "type": "uint256"
            },
            {
              "components": [
                {
                  "internalType": "string",
                  "name": "category",
                  "type": "string"
                },
                {
                  "internalType": "string",
                  "name": "factor_name",
                  "type": "string"
                },
                {
                  "internalType": "string",
                  "name": "value",
                  "type": "string"
                },
                {
                  "internalType": "string",
                  "name": "value_type",
                  "type": "string"
                },
                {
                  "internalType": "uint256",
                  "name": "emission_value",
                  "type": "uint256"
                }
              ],
              "internalType": "struct Data_Types.Emission[50]",
              "name": "emission",
              "type": "tuple[50]"
            }
          ],
          "internalType": "struct Data_Types.DateEmission[10]",
          "name": "",
          "type": "tuple[10]"
        }
      ],
      "stateMutability": "view",
      "type": "function"
    },
    {
      "inputs": [],
      "name": "loginUser",
      "outputs": [
        {
          "internalType": "bool",
          "name": "",
          "type": "bool"
        }
      ],
      "stateMutability": "view",
      "type": "function"
    },
    {
      "inputs": [],
      "name": "owner",
      "outputs": [
        {
          "internalType": "address",
          "name": "",
          "type": "address"
        }
      ],
      "stateMutability": "view",
      "type": "function"
    },
    {
      "inputs": [
        {
          "components": [
            {
              "internalType": "string",
              "name": "first_name",
              "type": "string"
            },
            {
              "internalType": "string",
              "name": "last_name",
              "type": "string"
            },
            {
              "internalType": "string",
              "name": "email",
              "type": "string"
            },
            {
              "internalType": "uint256",
              "name": "date_of_birth",
              "type": "uint256"
            },
            {
              "internalType": "string",
              "name": "gender",
              "type": "string"
            }
          ],
          "internalType": "struct Data_Types.RegisterUserType",
          "name": "args",
          "type": "tuple"
        }
      ],
      "name": "registerUser",
      "outputs": [
        {
          "internalType": "bool",
          "name": "",
          "type": "bool"
        }
      ],
      "stateMutability": "nonpayable",
      "type": "function"
    }
  ],
  "bytecode": "0x608060405234801561001057600080fd5b50600080546001600160a01b03191633179055611870806100326000396000f3fe608060405234801561001057600080fd5b506004361061007d5760003560e01c8063a19ed6861161005b578063a19ed686146100f5578063b0d88ad0146100fd578063c01d974914610110578063c11111221461012557600080fd5b806309924b9f146100825780634b647891146100aa5780638da5cb5b146100ca575b600080fd5b610095610090366004610ff2565b610138565b60405190151581526020015b60405180910390f35b6100bd6100b83660046110d4565b610674565b6040516100a19190611156565b6000546100dd906001600160a01b031681565b6040516001600160a01b0390911681526020016100a1565b6100956109ab565b61009561010b366004611372565b6109f6565b61012361011e366004611483565b610a54565b005b6100956101333660046115a5565b610b71565b80515160009061018f5760405162461bcd60e51b815260206004820152601a60248201527f4669727374204e616d652063616e6e6f7420626520656d70747900000000000060448201526064015b60405180910390fd5b6000826020015151116101e45760405162461bcd60e51b815260206004820152601960248201527f4c617374204e616d652063616e6e6f7420626520656d707479000000000000006044820152606401610186565b6000826040015151116102315760405162461bcd60e51b8152602060048201526015602482015274456d61696c2063616e6e6f7420626520656d70747960581b6044820152606401610186565b60008260800151511161027f5760405162461bcd60e51b815260206004820152601660248201527547656e6465722063616e6e6f7420626520656d70747960501b6044820152606401610186565b60008260600151116102d35760405162461bcd60e51b815260206004820152601760248201527f416464726573732063616e6e6f7420626520656d7074790000000000000000006044820152606401610186565b33600090815260026020818152604080842081516101008101835281546001600160a01b0316815260018201549381019390935292830180549293929184019161031c906115fb565b80601f0160208091040260200160405190810160405280929190818152602001828054610348906115fb565b80156103955780601f1061036a57610100808354040283529160200191610395565b820191906000526020600020905b81548152906001019060200180831161037857829003601f168201915b505050505081526020016003820180546103ae906115fb565b80601f01602080910402602001604051908101604052809291908181526020018280546103da906115fb565b80156104275780601f106103fc57610100808354040283529160200191610427565b820191906000526020600020905b81548152906001019060200180831161040a57829003601f168201915b50505050508152602001600482018054610440906115fb565b80601f016020809104026020016040519081016040528092919081815260200182805461046c906115fb565b80156104b95780601f1061048e576101008083540402835291602001916104b9565b820191906000526020600020905b81548152906001019060200180831161049c57829003601f168201915b50505050508152602001600582015481526020016006820180546104dc906115fb565b80601f0160208091040260200160405190810160405280929190818152602001828054610508906115fb565b80156105555780601f1061052a57610100808354040283529160200191610555565b820191906000526020600020905b81548152906001019060200180831161053857829003601f168201915b50505050508152602001600782018054806020026020016040519081016040528092919081815260200182805480156105ad57602002820191906000526020600020905b815481526020019060010190808311610599575b505050919092525050336000908152600260208190526040909120018054929350916105d991506115fb565b1590506106285760405162461bcd60e51b815260206004820152601860248201527f5573657220616c726561647920726567697374657265642e00000000000000006044820152606401610186565b82516040808301919091526020840151606080840191909152908401516080808401919091529084015160a083015283015160c082015233815261066b81610a54565b50600192915050565b61067c610dac565b610684610dac565b825162015180906000905b856020015181116109a157336000908152600160209081526040822091839052526106b8610dda565b818152336000908152600160209081526040808320858452909152808220815161064081019092529091603290835b82821015610961578382600502016040518060a0016040529081600082018054610710906115fb565b80601f016020809104026020016040519081016040528092919081815260200182805461073c906115fb565b80156107895780601f1061075e57610100808354040283529160200191610789565b820191906000526020600020905b81548152906001019060200180831161076c57829003601f168201915b505050505081526020016001820180546107a2906115fb565b80601f01602080910402602001604051908101604052809291908181526020018280546107ce906115fb565b801561081b5780601f106107f05761010080835404028352916020019161081b565b820191906000526020600020905b8154815290600101906020018083116107fe57829003601f168201915b50505050508152602001600282018054610834906115fb565b80601f0160208091040260200160405190810160405280929190818152602001828054610860906115fb565b80156108ad5780601f10610882576101008083540402835291602001916108ad565b820191906000526020600020905b81548152906001019060200180831161089057829003601f168201915b505050505081526020016003820180546108c6906115fb565b80601f01602080910402602001604051908101604052809291908181526020018280546108f2906115fb565b801561093f5780601f106109145761010080835404028352916020019161093f565b820191906000526020600020905b81548152906001019060200180831161092257829003601f168201915b50505050508152602001600482015481525050815260200190600101906106e7565b505050506020820152808584600a811061097d5761097d61162f565b60200201528261098c8161165b565b9350505061099a8382611674565b905061068f565b5091949350505050565b33600081815260026020819052604082200180549192918391906109ce906115fb565b9050116109ed5760405162461bcd60e51b81526004016101869061168d565b600191505b5090565b3360008181526002602081905260408220018054919291839190610a19906115fb565b905011610a385760405162461bcd60e51b81526004016101869061168d565b610a4b8360000151846020015133610b71565b91505b50919050565b80516001600160a01b03908116600090815260026020818152604092839020855181546001600160a01b0319169516949094178455840151600184015590830151839291820190610aa59082611720565b5060608201516003820190610aba9082611720565b5060808201516004820190610acf9082611720565b5060a0820151600582015560c08201516006820190610aee9082611720565b5060e08201518051610b0a916007840191602090910190610df9565b50508151604080840151606085015191517f48cac28ad4dc618e15f4c2dd5e97751182f166de97b25618318b2112aa951a2f9450610b4b92906020016117df565b60408051601f1981840301815290829052610b66929161180e565b60405180910390a150565b6001600160a01b038116600090815260016020908152604082208583529052603260005b81811015610da057848160328110610baf57610baf61162f565b60209081029190910151516001600160a01b03861660009081526001835260408082208a8352909352919091208260328110610bed57610bed61162f565b6005020190610bfc9082611720565b50848160328110610c0f57610c0f61162f565b602090810291909101518101516001600160a01b03861660009081526001835260408082208a8352909352919091208260328110610c4f57610c4f61162f565b600502016001019081610c629190611720565b50848160328110610c7557610c7561162f565b602090810291909101516040908101516001600160a01b0387166000908152600184528281208a825290935291208260328110610cb457610cb461162f565b600502016002019081610cc79190611720565b50848160328110610cda57610cda61162f565b60209081029190910151606001516001600160a01b03861660009081526001835260408082208a8352909352919091208260328110610d1b57610d1b61162f565b600502016003019081610d2e9190611720565b50848160328110610d4157610d4161162f565b60209081029190910151608001516001600160a01b03861660009081526001835260408082208a8352909352919091208260328110610d8257610d8261162f565b60050201600401819055508080610d989061165b565b915050610b95565b50600195945050505050565b604051806101400160405280600a905b610dc4610dda565b815260200190600190039081610dbc5790505090565b604051806040016040528060008152602001610df4610e40565b905290565b828054828255906000526020600020908101928215610e34579160200282015b82811115610e34578251825591602001919060010190610e19565b506109f2929150610e98565b6040518061064001604052806032905b610e826040518060a0016040528060608152602001606081526020016060815260200160608152602001600081525090565b815260200190600190039081610e505790505090565b5b808211156109f25760008155600101610e99565b634e487b7160e01b600052604160045260246000fd5b60405160a081016001600160401b0381118282101715610ee557610ee5610ead565b60405290565b604080519081016001600160401b0381118282101715610ee557610ee5610ead565b60405161064081016001600160401b0381118282101715610ee557610ee5610ead565b60405161010081016001600160401b0381118282101715610ee557610ee5610ead565b604051601f8201601f191681016001600160401b0381118282101715610f7b57610f7b610ead565b604052919050565b600082601f830112610f9457600080fd5b81356001600160401b03811115610fad57610fad610ead565b610fc0601f8201601f1916602001610f53565b818152846020838601011115610fd557600080fd5b816020850160208301376000918101602001919091529392505050565b60006020828403121561100457600080fd5b81356001600160401b038082111561101b57600080fd5b9083019060a0828603121561102f57600080fd5b611037610ec3565b82358281111561104657600080fd5b61105287828601610f83565b82525060208301358281111561106757600080fd5b61107387828601610f83565b60208301525060408301358281111561108b57600080fd5b61109787828601610f83565b604083015250606083013560608201526080830135828111156110b957600080fd5b6110c587828601610f83565b60808301525095945050505050565b6000604082840312156110e657600080fd5b6110ee610eeb565b82358152602083013560208201528091505092915050565b60005b83811015611121578181015183820152602001611109565b50506000910152565b60008151808452611142816020860160208601611106565b601f01601f19169290920160200192915050565b602080825260009061016083018382018584805b600a81101561124157878503601f1901845282518051865286015160408787018190526106808701818801855b603281101561122a57603f198a8403018252845160a081518186526111be8287018261112a565b9150508c8201518582038e8701526111d6828261112a565b91505085820151858203878701526111ee828261112a565b91505060608083015186830382880152611208838261112a565b60809485015197909401969096525050948b01949250908a0190600101611197565b50909750505093860193509185019160010161116a565b5092979650505050505050565b600082601f83011261125f57600080fd5b611267610f0d565b8061064084018581111561127a57600080fd5b845b818110156113675780356001600160401b038082111561129c5760008081fd5b9087019060a0828a0312156112b15760008081fd5b6112b9610ec3565b8235828111156112c95760008081fd5b6112d58b828601610f83565b825250602080840135838111156112ec5760008081fd5b6112f88c828701610f83565b8284015250604080850135848111156113115760008081fd5b61131d8d828801610f83565b828501525050606080850135848111156113375760008081fd5b6113438d828801610f83565b9184019190915250608093840135938201939093528652509093019260200161127c565b509095945050505050565b60006020828403121561138457600080fd5b81356001600160401b038082111561139b57600080fd5b90830190604082860312156113af57600080fd5b6113b7610eeb565b823581526020830135828111156113cd57600080fd5b6113d98782860161124e565b60208301525095945050505050565b80356001600160a01b03811681146113ff57600080fd5b919050565b600082601f83011261141557600080fd5b813560206001600160401b0382111561143057611430610ead565b8160051b61143f828201610f53565b928352848101820192828101908785111561145957600080fd5b83870192505b848310156114785782358252918301919083019061145f565b979650505050505050565b60006020828403121561149557600080fd5b81356001600160401b03808211156114ac57600080fd5b9083019061010082860312156114c157600080fd5b6114c9610f30565b6114d2836113e8565b8152602083013560208201526040830135828111156114f057600080fd5b6114fc87828601610f83565b60408301525060608301358281111561151457600080fd5b61152087828601610f83565b60608301525060808301358281111561153857600080fd5b61154487828601610f83565b60808301525060a083013560a082015260c08301358281111561156657600080fd5b61157287828601610f83565b60c08301525060e08301358281111561158a57600080fd5b61159687828601611404565b60e08301525095945050505050565b6000806000606084860312156115ba57600080fd5b8335925060208401356001600160401b038111156115d757600080fd5b6115e38682870161124e565b9250506115f2604085016113e8565b90509250925092565b600181811c9082168061160f57607f821691505b602082108103610a4e57634e487b7160e01b600052602260045260246000fd5b634e487b7160e01b600052603260045260246000fd5b634e487b7160e01b600052601160045260246000fd5b60006001820161166d5761166d611645565b5060010190565b8082018082111561168757611687611645565b92915050565b60208082526024908201527f5573657220646f65736e27742065786973742e20506c656173652072656769736040820152633a32b91760e11b606082015260800190565b601f82111561171b57600081815260208120601f850160051c810160208610156116f85750805b601f850160051c820191505b8181101561171757828155600101611704565b5050505b505050565b81516001600160401b0381111561173957611739610ead565b61174d8161174784546115fb565b846116d1565b602080601f831160018114611782576000841561176a5750858301515b600019600386901b1c1916600185901b178555611717565b600085815260208120601f198616915b828110156117b157888601518255948401946001909101908401611792565b50858210156117cf5787850151600019600388901b60f8161c191681555b5050505050600190811b01905550565b600083516117f1818460208801611106565b835190830190611805818360208801611106565b01949350505050565b6001600160a01b03831681526040602082018190526000906118329083018461112a565b94935050505056fea264697066735822122007fc648d9a43a770b1dcbae2ef76b2bb03ade12e55c19a0f639722508380b81064736f6c63430008130033",
  "linkReferences": {},
  "deployedLinkReferences": {}
}