{
  "_format": "hh-sol-artifact-1",
  "contractName": "Functionality",
  "sourceName": "contracts/Functionality.sol",
  "abi": [
    {
      "anonymous": false,
      "inputs": [
        {
          "indexed": false,
          "internalType": "address",
          "name": "userAddress",
          "type": "address"
        },
        {
          "indexed": false,
          "internalType": "string",
          "name": "username",
          "type": "string"
        }
      ],
      "name": "UserRegistered",
      "type": "event"
    },
    {
      "inputs": [
        {
          "components": [
            {
              "internalType": "uint256",
              "name": "date",
              "type": "uint256"
            },
            {
              "components": [
                {
                  "internalType": "string",
                  "name": "category",
                  "type": "string"
                },
                {
                  "internalType": "string",
                  "name": "factor_name",
                  "type": "string"
                },
                {
                  "internalType": "string",
                  "name": "value",
                  "type": "string"
                },
                {
                  "internalType": "string",
                  "name": "value_type",
                  "type": "string"
                },
                {
                  "internalType": "uint256",
                  "name": "emission_value",
                  "type": "uint256"
                }
              ],
              "internalType": "struct Data_Types.Emission[50]",
              "name": "emissions",
              "type": "tuple[50]"
            }
          ],
          "internalType": "struct Data_Types.AddEmissionType",
          "name": "args",
          "type": "tuple"
        }
      ],
      "name": "addEmission",
      "outputs": [
        {
          "internalType": "bool",
          "name": "",
          "type": "bool"
        }
      ],
      "stateMutability": "nonpayable",
      "type": "function"
    },
    {
      "inputs": [
        {
          "internalType": "uint256",
          "name": "date",
          "type": "uint256"
        },
        {
          "components": [
            {
              "internalType": "string",
              "name": "category",
              "type": "string"
            },
            {
              "internalType": "string",
              "name": "factor_name",
              "type": "string"
            },
            {
              "internalType": "string",
              "name": "value",
              "type": "string"
            },
            {
              "internalType": "string",
              "name": "value_type",
              "type": "string"
            },
            {
              "internalType": "uint256",
              "name": "emission_value",
              "type": "uint256"
            }
          ],
          "internalType": "struct Data_Types.Emission[50]",
          "name": "emissions",
          "type": "tuple[50]"
        },
        {
          "internalType": "address",
          "name": "sender",
          "type": "address"
        }
      ],
      "name": "addEmissionToList",
      "outputs": [
        {
          "internalType": "bool",
          "name": "",
          "type": "bool"
        }
      ],
      "stateMutability": "nonpayable",
      "type": "function"
    },
    {
      "inputs": [
        {
          "components": [
            {
              "internalType": "address",
              "name": "user_address",
              "type": "address"
            },
            {
              "internalType": "uint256",
              "name": "id",
              "type": "uint256"
            },
            {
              "internalType": "string",
              "name": "first_name",
              "type": "string"
            },
            {
              "internalType": "string",
              "name": "last_name",
              "type": "string"
            },
            {
              "internalType": "string",
              "name": "email",
              "type": "string"
            },
            {
              "internalType": "uint256",
              "name": "date_of_birth",
              "type": "uint256"
            },
            {
              "internalType": "string",
              "name": "gender",
              "type": "string"
            },
            {
              "internalType": "uint256[]",
              "name": "date_list",
              "type": "uint256[]"
            }
          ],
          "internalType": "struct Data_Types.User",
          "name": "newUser",
          "type": "tuple"
        }
      ],
      "name": "addUser",
      "outputs": [],
      "stateMutability": "nonpayable",
      "type": "function"
    },
    {
      "inputs": [
        {
          "components": [
            {
              "internalType": "uint256",
              "name": "from",
              "type": "uint256"
            },
            {
              "internalType": "uint256",
              "name": "to",
              "type": "uint256"
            }
          ],
          "internalType": "struct Data_Types.FetchEmissionsType",
          "name": "args",
          "type": "tuple"
        }
      ],
      "name": "fetchEmissions",
      "outputs": [
        {
          "components": [
            {
              "internalType": "uint256",
              "name": "date",
              "type": "uint256"
            },
            {
              "components": [
                {
                  "internalType": "string",
                  "name": "category",
                  "type": "string"
                },
                {
                  "internalType": "string",
                  "name": "factor_name",
                  "type": "string"
                },
                {
                  "internalType": "string",
                  "name": "value",
                  "type": "string"
                },
                {
                  "internalType": "string",
                  "name": "value_type",
                  "type": "string"
                },
                {
                  "internalType": "uint256",
                  "name": "emission_value",
                  "type": "uint256"
                }
              ],
              "internalType": "struct Data_Types.Emission[50]",
              "name": "emission",
              "type": "tuple[50]"
            }
          ],
          "internalType": "struct Data_Types.DateEmission[366]",
          "name": "",
          "type": "tuple[366]"
        }
      ],
      "stateMutability": "view",
      "type": "function"
    },
    {
      "inputs": [],
      "name": "loginUser",
      "outputs": [
        {
          "internalType": "bool",
          "name": "",
          "type": "bool"
        }
      ],
      "stateMutability": "view",
      "type": "function"
    },
    {
      "inputs": [],
      "name": "owner",
      "outputs": [
        {
          "internalType": "address",
          "name": "",
          "type": "address"
        }
      ],
      "stateMutability": "view",
      "type": "function"
    },
    {
      "inputs": [
        {
          "components": [
            {
              "internalType": "string",
              "name": "first_name",
              "type": "string"
            },
            {
              "internalType": "string",
              "name": "last_name",
              "type": "string"
            },
            {
              "internalType": "string",
              "name": "email",
              "type": "string"
            },
            {
              "internalType": "uint256",
              "name": "date_of_birth",
              "type": "uint256"
            },
            {
              "internalType": "string",
              "name": "gender",
              "type": "string"
            }
          ],
          "internalType": "struct Data_Types.RegisterUserType",
          "name": "args",
          "type": "tuple"
        }
      ],
      "name": "registerUser",
      "outputs": [
        {
          "internalType": "bool",
          "name": "",
          "type": "bool"
        }
      ],
      "stateMutability": "nonpayable",
      "type": "function"
    },
    {
      "inputs": [
        {
          "internalType": "address",
          "name": "",
          "type": "address"
        },
        {
          "internalType": "uint256",
          "name": "",
          "type": "uint256"
        },
        {
          "internalType": "uint256",
          "name": "",
          "type": "uint256"
        }
      ],
      "name": "user_emissions",
      "outputs": [
        {
          "internalType": "string",
          "name": "category",
          "type": "string"
        },
        {
          "internalType": "string",
          "name": "factor_name",
          "type": "string"
        },
        {
          "internalType": "string",
          "name": "value",
          "type": "string"
        },
        {
          "internalType": "string",
          "name": "value_type",
          "type": "string"
        },
        {
          "internalType": "uint256",
          "name": "emission_value",
          "type": "uint256"
        }
      ],
      "stateMutability": "view",
      "type": "function"
    }
  ],
  "bytecode": "0x608060405234801561001057600080fd5b50600080546001600160a01b03191633179055611f9f806100326000396000f3fe608060405234801561001057600080fd5b50600436106100885760003560e01c8063a19ed6861161005b578063a19ed68614610124578063b0d88ad01461012c578063c01d97491461013f578063c11111221461015457600080fd5b806309924b9f1461008d5780631969dc39146100b55780634b647891146100d95780638da5cb5b146100f9575b600080fd5b6100a061009b36600461168d565b610167565b60405190151581526020015b60405180910390f35b6100c86100c336600461178b565b6106bf565b6040516100ac95949392919061180e565b6100ec6100e736600461186e565b610930565b6040516100ac91906118a0565b60005461010c906001600160a01b031681565b6040516001600160a01b0390911681526020016100ac565b6100a0611047565b6100a061013a366004611abd565b611092565b61015261014d366004611bb2565b6110f0565b005b6100a0610162366004611cd4565b61120d565b8051516000906101be5760405162461bcd60e51b815260206004820152601a60248201527f4669727374204e616d652063616e6e6f7420626520656d70747900000000000060448201526064015b60405180910390fd5b6000826020015151116102135760405162461bcd60e51b815260206004820152601960248201527f4c617374204e616d652063616e6e6f7420626520656d7074790000000000000060448201526064016101b5565b6000826040015151116102605760405162461bcd60e51b8152602060048201526015602482015274456d61696c2063616e6e6f7420626520656d70747960581b60448201526064016101b5565b6000826080015151116102ae5760405162461bcd60e51b815260206004820152601660248201527547656e6465722063616e6e6f7420626520656d70747960501b60448201526064016101b5565b60008260600151116103025760405162461bcd60e51b815260206004820152601760248201527f416464726573732063616e6e6f7420626520656d70747900000000000000000060448201526064016101b5565b33600090815260026020818152604080842081516101008101835281546001600160a01b0316815260018201549381019390935292830180549293929184019161034b90611d2a565b80601f016020809104026020016040519081016040528092919081815260200182805461037790611d2a565b80156103c45780601f10610399576101008083540402835291602001916103c4565b820191906000526020600020905b8154815290600101906020018083116103a757829003601f168201915b505050505081526020016003820180546103dd90611d2a565b80601f016020809104026020016040519081016040528092919081815260200182805461040990611d2a565b80156104565780601f1061042b57610100808354040283529160200191610456565b820191906000526020600020905b81548152906001019060200180831161043957829003601f168201915b5050505050815260200160048201805461046f90611d2a565b80601f016020809104026020016040519081016040528092919081815260200182805461049b90611d2a565b80156104e85780601f106104bd576101008083540402835291602001916104e8565b820191906000526020600020905b8154815290600101906020018083116104cb57829003601f168201915b505050505081526020016005820154815260200160068201805461050b90611d2a565b80601f016020809104026020016040519081016040528092919081815260200182805461053790611d2a565b80156105845780601f1061055957610100808354040283529160200191610584565b820191906000526020600020905b81548152906001019060200180831161056757829003601f168201915b50505050508152602001600782018054806020026020016040519081016040528092919081815260200182805480156105dc57602002820191906000526020600020905b8154815260200190600101908083116105c8575b50505050508152505090508060000151604051602001610614919060609190911b6bffffffffffffffffffffffff1916815260140190565b604051602081830303815290604052516000146106735760405162461bcd60e51b815260206004820152601860248201527f5573657220616c726561647920726567697374657265642e000000000000000060448201526064016101b5565b82516040808301919091526020840151606080840191909152908401516080808401919091529084015160a083015283015160c08201523381526106b6816110f0565b50600192915050565b600160205282600052604060002060205281600052604060002081603281106106e757600080fd5b6005020180549093508392506106fd9150611d2a565b80601f016020809104026020016040519081016040528092919081815260200182805461072990611d2a565b80156107765780601f1061074b57610100808354040283529160200191610776565b820191906000526020600020905b81548152906001019060200180831161075957829003601f168201915b50505050509080600101805461078b90611d2a565b80601f01602080910402602001604051908101604052809291908181526020018280546107b790611d2a565b80156108045780601f106107d957610100808354040283529160200191610804565b820191906000526020600020905b8154815290600101906020018083116107e757829003601f168201915b50505050509080600201805461081990611d2a565b80601f016020809104026020016040519081016040528092919081815260200182805461084590611d2a565b80156108925780601f1061086757610100808354040283529160200191610892565b820191906000526020600020905b81548152906001019060200180831161087557829003601f168201915b5050505050908060030180546108a790611d2a565b80601f01602080910402602001604051908101604052809291908181526020018280546108d390611d2a565b80156109205780601f106108f557610100808354040283529160200191610920565b820191906000526020600020905b81548152906001019060200180831161090357829003601f168201915b5050505050908060040154905085565b610938611446565b610940611446565b82516000905b8460200151811161103e573360009081526001602090815260408220918390525261096f611475565b818152336000908152600160209081526040808320858452909152808220815161064081019092529091603290835b82821015610c18578382600502016040518060a00160405290816000820180546109c790611d2a565b80601f01602080910402602001604051908101604052809291908181526020018280546109f390611d2a565b8015610a405780601f10610a1557610100808354040283529160200191610a40565b820191906000526020600020905b815481529060010190602001808311610a2357829003601f168201915b50505050508152602001600182018054610a5990611d2a565b80601f0160208091040260200160405190810160405280929190818152602001828054610a8590611d2a565b8015610ad25780601f10610aa757610100808354040283529160200191610ad2565b820191906000526020600020905b815481529060010190602001808311610ab557829003601f168201915b50505050508152602001600282018054610aeb90611d2a565b80601f0160208091040260200160405190810160405280929190818152602001828054610b1790611d2a565b8015610b645780601f10610b3957610100808354040283529160200191610b64565b820191906000526020600020905b815481529060010190602001808311610b4757829003601f168201915b50505050508152602001600382018054610b7d90611d2a565b80601f0160208091040260200160405190810160405280929190818152602001828054610ba990611d2a565b8015610bf65780601f10610bcb57610100808354040283529160200191610bf6565b820191906000526020600020905b815481529060010190602001808311610bd957829003601f168201915b505050505081526020016004820154815250508152602001906001019061099e565b50505050602082015260005b60328110156110025733600090815260016020908152604080832086845290915290208160328110610c5857610c58611d5e565b600502018054610c6790611d2a565b80601f0160208091040260200160405190810160405280929190818152602001828054610c9390611d2a565b8015610ce05780601f10610cb557610100808354040283529160200191610ce0565b820191906000526020600020905b815481529060010190602001808311610cc357829003601f168201915b505050505082602001518260328110610cfb57610cfb611d5e565b6020908102919091015191909152336000908152600182526040808220868352909252208160328110610d3057610d30611d5e565b600502016001018054610d4290611d2a565b80601f0160208091040260200160405190810160405280929190818152602001828054610d6e90611d2a565b8015610dbb5780601f10610d9057610100808354040283529160200191610dbb565b820191906000526020600020905b815481529060010190602001808311610d9e57829003601f168201915b505050505082602001518260328110610dd657610dd6611d5e565b60209081029190910151810191909152336000908152600182526040808220868352909252208160328110610e0d57610e0d611d5e565b600502016002018054610e1f90611d2a565b80601f0160208091040260200160405190810160405280929190818152602001828054610e4b90611d2a565b8015610e985780601f10610e6d57610100808354040283529160200191610e98565b820191906000526020600020905b815481529060010190602001808311610e7b57829003601f168201915b505050505082602001518260328110610eb357610eb3611d5e565b6020908102919091015160409081019290925233600090815260018252828120868252909152208160328110610eeb57610eeb611d5e565b600502016003018054610efd90611d2a565b80601f0160208091040260200160405190810160405280929190818152602001828054610f2990611d2a565b8015610f765780601f10610f4b57610100808354040283529160200191610f76565b820191906000526020600020905b815481529060010190602001808311610f5957829003601f168201915b505050505082602001518260328110610f9157610f91611d5e565b6020908102919091015160600191909152336000908152600182526040808220868352909252208160328110610fc957610fc9611d5e565b600502016004015482602001518260328110610fe757610fe7611d5e565b60200201516080015280610ffa81611d8a565b915050610c24565b5080848461016e811061101757611017611d5e565b60200201528261102681611d8a565b935050506110378162015180611da3565b9050610946565b50909392505050565b336000818152600260208190526040822001805491929183919061106a90611d2a565b9050116110895760405162461bcd60e51b81526004016101b590611dbc565b600191505b5090565b33600081815260026020819052604082200180549192918391906110b590611d2a565b9050116110d45760405162461bcd60e51b81526004016101b590611dbc565b6110e7836000015184602001513361120d565b91505b50919050565b80516001600160a01b03908116600090815260026020818152604092839020855181546001600160a01b03191695169490941784558401516001840155908301518392918201906111419082611e4f565b50606082015160038201906111569082611e4f565b506080820151600482019061116b9082611e4f565b5060a0820151600582015560c0820151600682019061118a9082611e4f565b5060e082015180516111a6916007840191602090910190611494565b50508151604080840151606085015191517f48cac28ad4dc618e15f4c2dd5e97751182f166de97b25618318b2112aa951a2f94506111e79290602001611f0e565b60408051601f19818403018152908290526112029291611f3d565b60405180910390a150565b6001600160a01b03811660009081526001602090815260408220858352905260005b603281101561143b5783816032811061124a5761124a611d5e565b60209081029190910151516001600160a01b038516600090815260018352604080822089835290935291909120826032811061128857611288611d5e565b60050201906112979082611e4f565b508381603281106112aa576112aa611d5e565b602090810291909101518101516001600160a01b03851660009081526001835260408082208983529093529190912082603281106112ea576112ea611d5e565b6005020160010190816112fd9190611e4f565b5083816032811061131057611310611d5e565b602090810291909101516040908101516001600160a01b0386166000908152600184528281208982529093529120826032811061134f5761134f611d5e565b6005020160020190816113629190611e4f565b5083816032811061137557611375611d5e565b60209081029190910151606001516001600160a01b03851660009081526001835260408082208983529093529190912082603281106113b6576113b6611d5e565b6005020160030190816113c99190611e4f565b508381603281106113dc576113dc611d5e565b60209081029190910151608001516001600160a01b038516600090815260018352604080822089835290935291909120826032811061141d5761141d611d5e565b6005020160040181905550808061143390611d8a565b91505061122f565b506001949350505050565b60405180612dc0016040528061016e905b61145f611475565b8152602001906001900390816114575790505090565b60405180604001604052806000815260200161148f6114db565b905290565b8280548282559060005260206000209081019282156114cf579160200282015b828111156114cf5782518255916020019190600101906114b4565b5061108e929150611533565b6040518061064001604052806032905b61151d6040518060a0016040528060608152602001606081526020016060815260200160608152602001600081525090565b8152602001906001900390816114eb5790505090565b5b8082111561108e5760008155600101611534565b634e487b7160e01b600052604160045260246000fd5b60405160a081016001600160401b038111828210171561158057611580611548565b60405290565b604080519081016001600160401b038111828210171561158057611580611548565b60405161064081016001600160401b038111828210171561158057611580611548565b60405161010081016001600160401b038111828210171561158057611580611548565b604051601f8201601f191681016001600160401b038111828210171561161657611616611548565b604052919050565b600082601f83011261162f57600080fd5b81356001600160401b0381111561164857611648611548565b61165b601f8201601f19166020016115ee565b81815284602083860101111561167057600080fd5b816020850160208301376000918101602001919091529392505050565b60006020828403121561169f57600080fd5b81356001600160401b03808211156116b657600080fd5b9083019060a082860312156116ca57600080fd5b6116d261155e565b8235828111156116e157600080fd5b6116ed8782860161161e565b82525060208301358281111561170257600080fd5b61170e8782860161161e565b60208301525060408301358281111561172657600080fd5b6117328782860161161e565b6040830152506060830135606082015260808301358281111561175457600080fd5b6117608782860161161e565b60808301525095945050505050565b80356001600160a01b038116811461178657600080fd5b919050565b6000806000606084860312156117a057600080fd5b6117a98461176f565b95602085013595506040909401359392505050565b60005b838110156117d95781810151838201526020016117c1565b50506000910152565b600081518084526117fa8160208601602086016117be565b601f01601f19169290920160200192915050565b60a08152600061182160a08301886117e2565b828103602084015261183381886117e2565b9050828103604084015261184781876117e2565b9050828103606084015261185b81866117e2565b9150508260808301529695505050505050565b60006040828403121561188057600080fd5b611888611586565b82358152602083013560208201528091505092915050565b6020808252600090612de083018382018584805b61016e81101561198c57878503601f1901845282518051865286015160408787018190526106808701818801855b603281101561197557603f198a8403018252845160a08151818652611909828701826117e2565b9150508c8201518582038e87015261192182826117e2565b915050858201518582038787015261193982826117e2565b9150506060808301518683038288015261195383826117e2565b60809485015197909401969096525050948b01949250908a01906001016118e2565b5090975050509386019350918501916001016118b4565b5092979650505050505050565b600082601f8301126119aa57600080fd5b6119b26115a8565b806106408401858111156119c557600080fd5b845b81811015611ab25780356001600160401b03808211156119e75760008081fd5b9087019060a0828a0312156119fc5760008081fd5b611a0461155e565b823582811115611a145760008081fd5b611a208b82860161161e565b82525060208084013583811115611a375760008081fd5b611a438c82870161161e565b828401525060408085013584811115611a5c5760008081fd5b611a688d82880161161e565b82850152505060608085013584811115611a825760008081fd5b611a8e8d82880161161e565b918401919091525060809384013593820193909352865250909301926020016119c7565b509095945050505050565b600060208284031215611acf57600080fd5b81356001600160401b0380821115611ae657600080fd5b9083019060408286031215611afa57600080fd5b611b02611586565b82358152602083013582811115611b1857600080fd5b611b2487828601611999565b60208301525095945050505050565b600082601f830112611b4457600080fd5b813560206001600160401b03821115611b5f57611b5f611548565b8160051b611b6e8282016115ee565b9283528481018201928281019087851115611b8857600080fd5b83870192505b84831015611ba757823582529183019190830190611b8e565b979650505050505050565b600060208284031215611bc457600080fd5b81356001600160401b0380821115611bdb57600080fd5b908301906101008286031215611bf057600080fd5b611bf86115cb565b611c018361176f565b815260208301356020820152604083013582811115611c1f57600080fd5b611c2b8782860161161e565b604083015250606083013582811115611c4357600080fd5b611c4f8782860161161e565b606083015250608083013582811115611c6757600080fd5b611c738782860161161e565b60808301525060a083013560a082015260c083013582811115611c9557600080fd5b611ca18782860161161e565b60c08301525060e083013582811115611cb957600080fd5b611cc587828601611b33565b60e08301525095945050505050565b600080600060608486031215611ce957600080fd5b8335925060208401356001600160401b03811115611d0657600080fd5b611d1286828701611999565b925050611d216040850161176f565b90509250925092565b600181811c90821680611d3e57607f821691505b6020821081036110ea57634e487b7160e01b600052602260045260246000fd5b634e487b7160e01b600052603260045260246000fd5b634e487b7160e01b600052601160045260246000fd5b600060018201611d9c57611d9c611d74565b5060010190565b80820180821115611db657611db6611d74565b92915050565b60208082526024908201527f5573657220646f65736e27742065786973742e20506c656173652072656769736040820152633a32b91760e11b606082015260800190565b601f821115611e4a57600081815260208120601f850160051c81016020861015611e275750805b601f850160051c820191505b81811015611e4657828155600101611e33565b5050505b505050565b81516001600160401b03811115611e6857611e68611548565b611e7c81611e768454611d2a565b84611e00565b602080601f831160018114611eb15760008415611e995750858301515b600019600386901b1c1916600185901b178555611e46565b600085815260208120601f198616915b82811015611ee057888601518255948401946001909101908401611ec1565b5085821015611efe5787850151600019600388901b60f8161c191681555b5050505050600190811b01905550565b60008351611f208184602088016117be565b835190830190611f348183602088016117be565b01949350505050565b6001600160a01b0383168152604060208201819052600090611f61908301846117e2565b94935050505056fea264697066735822122021637d1b2c5779be1218cbd857dfcca24749cdd319833dc136beb4c66532a3b164736f6c63430008130033",
  "linkReferences": {},
  "deployedLinkReferences": {}
}